{
  "_format": "hh-sol-artifact-1",
  "contractName": "MAPBridgeRelayV2",
  "sourceName": "contracts/MAPBridgeRelayV2.sol",
  "abi": [
    {
      "anonymous": false,
      "inputs": [
        {
          "indexed": false,
          "internalType": "address",
          "name": "account",
          "type": "address"
        }
      ],
      "name": "Paused",
      "type": "event"
    },
    {
      "anonymous": false,
      "inputs": [
        {
          "indexed": true,
          "internalType": "bytes32",
          "name": "role",
          "type": "bytes32"
        },
        {
          "indexed": true,
          "internalType": "bytes32",
          "name": "previousAdminRole",
          "type": "bytes32"
        },
        {
          "indexed": true,
          "internalType": "bytes32",
          "name": "newAdminRole",
          "type": "bytes32"
        }
      ],
      "name": "RoleAdminChanged",
      "type": "event"
    },
    {
      "anonymous": false,
      "inputs": [
        {
          "indexed": true,
          "internalType": "bytes32",
          "name": "role",
          "type": "bytes32"
        },
        {
          "indexed": true,
          "internalType": "address",
          "name": "account",
          "type": "address"
        },
        {
          "indexed": true,
          "internalType": "address",
          "name": "sender",
          "type": "address"
        }
      ],
      "name": "RoleGranted",
      "type": "event"
    },
    {
      "anonymous": false,
      "inputs": [
        {
          "indexed": true,
          "internalType": "bytes32",
          "name": "role",
          "type": "bytes32"
        },
        {
          "indexed": true,
          "internalType": "address",
          "name": "account",
          "type": "address"
        },
        {
          "indexed": true,
          "internalType": "address",
          "name": "sender",
          "type": "address"
        }
      ],
      "name": "RoleRevoked",
      "type": "event"
    },
    {
      "anonymous": false,
      "inputs": [
        {
          "indexed": false,
          "internalType": "address",
          "name": "account",
          "type": "address"
        }
      ],
      "name": "Unpaused",
      "type": "event"
    },
    {
      "anonymous": false,
      "inputs": [
        {
          "indexed": true,
          "internalType": "address",
          "name": "token",
          "type": "address"
        },
        {
          "indexed": true,
          "internalType": "address",
          "name": "from",
          "type": "address"
        },
        {
          "indexed": true,
          "internalType": "address",
          "name": "to",
          "type": "address"
        },
        {
          "indexed": false,
          "internalType": "bytes32",
          "name": "orderId",
          "type": "bytes32"
        },
        {
          "indexed": false,
          "internalType": "uint256",
          "name": "amount",
          "type": "uint256"
        },
        {
          "indexed": false,
          "internalType": "uint256",
          "name": "fromChain",
          "type": "uint256"
        }
      ],
      "name": "mapDepositIn",
      "type": "event"
    },
    {
      "anonymous": false,
      "inputs": [
        {
          "indexed": false,
          "internalType": "bytes32",
          "name": "tokenID",
          "type": "bytes32"
        },
        {
          "indexed": false,
          "internalType": "address",
          "name": "token",
          "type": "address"
        }
      ],
      "name": "mapTokenRegister",
      "type": "event"
    },
    {
      "anonymous": false,
      "inputs": [
        {
          "indexed": true,
          "internalType": "address",
          "name": "token",
          "type": "address"
        },
        {
          "indexed": true,
          "internalType": "address",
          "name": "from",
          "type": "address"
        },
        {
          "indexed": true,
          "internalType": "address",
          "name": "to",
          "type": "address"
        },
        {
          "indexed": false,
          "internalType": "bytes32",
          "name": "orderId",
          "type": "bytes32"
        },
        {
          "indexed": false,
          "internalType": "uint256",
          "name": "amount",
          "type": "uint256"
        },
        {
          "indexed": false,
          "internalType": "uint256",
          "name": "fromChain",
          "type": "uint256"
        },
        {
          "indexed": false,
          "internalType": "uint256",
          "name": "toChain",
          "type": "uint256"
        }
      ],
      "name": "mapTransferIn",
      "type": "event"
    },
    {
      "anonymous": false,
      "inputs": [
        {
          "indexed": true,
          "internalType": "address",
          "name": "token",
          "type": "address"
        },
        {
          "indexed": true,
          "internalType": "address",
          "name": "from",
          "type": "address"
        },
        {
          "indexed": true,
          "internalType": "address",
          "name": "to",
          "type": "address"
        },
        {
          "indexed": false,
          "internalType": "bytes32",
          "name": "orderId",
          "type": "bytes32"
        },
        {
          "indexed": false,
          "internalType": "uint256",
          "name": "amount",
          "type": "uint256"
        },
        {
          "indexed": false,
          "internalType": "uint256",
          "name": "fromChain",
          "type": "uint256"
        },
        {
          "indexed": false,
          "internalType": "uint256",
          "name": "toChain",
          "type": "uint256"
        }
      ],
      "name": "mapTransferOut",
      "type": "event"
    },
    {
      "inputs": [],
      "name": "DEFAULT_ADMIN_ROLE",
      "outputs": [
        {
          "internalType": "bytes32",
          "name": "",
          "type": "bytes32"
        }
      ],
      "stateMutability": "view",
      "type": "function"
    },
    {
      "inputs": [],
      "name": "MANAGER_ROLE",
      "outputs": [
        {
          "internalType": "bytes32",
          "name": "",
          "type": "bytes32"
        }
      ],
      "stateMutability": "view",
      "type": "function"
    },
    {
      "inputs": [
        {
          "internalType": "address[]",
          "name": "token",
          "type": "address[]"
        }
      ],
      "name": "addAuthToken",
      "outputs": [],
      "stateMutability": "nonpayable",
      "type": "function"
    },
    {
      "inputs": [
        {
          "internalType": "address",
          "name": "manager",
          "type": "address"
        }
      ],
      "name": "addManager",
      "outputs": [],
      "stateMutability": "nonpayable",
      "type": "function"
    },
    {
      "inputs": [
        {
          "internalType": "address",
          "name": "",
          "type": "address"
        }
      ],
      "name": "authToken",
      "outputs": [
        {
          "internalType": "bool",
          "name": "",
          "type": "bool"
        }
      ],
      "stateMutability": "view",
      "type": "function"
    },
    {
      "inputs": [
        {
          "internalType": "uint256",
          "name": "",
          "type": "uint256"
        }
      ],
      "name": "chainGasFee",
      "outputs": [
        {
          "internalType": "uint256",
          "name": "",
          "type": "uint256"
        }
      ],
      "stateMutability": "view",
      "type": "function"
    },
    {
      "inputs": [],
      "name": "chainGasFees",
      "outputs": [
        {
          "internalType": "uint256",
          "name": "",
          "type": "uint256"
        }
      ],
      "stateMutability": "view",
      "type": "function"
    },
    {
      "inputs": [
        {
          "internalType": "uint256",
          "name": "amount",
          "type": "uint256"
        },
        {
          "internalType": "address",
          "name": "token",
          "type": "address"
        }
      ],
      "name": "collectChainFee",
      "outputs": [],
      "stateMutability": "nonpayable",
      "type": "function"
    },
    {
      "inputs": [
        {
          "internalType": "address",
          "name": "token",
          "type": "address"
        },
        {
          "internalType": "address",
          "name": "from",
          "type": "address"
        },
        {
          "internalType": "address payable",
          "name": "to",
          "type": "address"
        },
        {
          "internalType": "uint256",
          "name": "amount",
          "type": "uint256"
        },
        {
          "internalType": "bytes32",
          "name": "orderId",
          "type": "bytes32"
        },
        {
          "internalType": "uint256",
          "name": "fromChain",
          "type": "uint256"
        }
      ],
      "name": "depositIn",
      "outputs": [],
      "stateMutability": "payable",
      "type": "function"
    },
    {
      "inputs": [],
      "name": "feeCenter",
      "outputs": [
        {
          "internalType": "contract IFeeCenter",
          "name": "",
          "type": "address"
        }
      ],
      "stateMutability": "view",
      "type": "function"
    },
    {
      "inputs": [
        {
          "internalType": "uint256",
          "name": "toChainId",
          "type": "uint256"
        },
        {
          "internalType": "address",
          "name": "token",
          "type": "address"
        },
        {
          "internalType": "uint256",
          "name": "amount",
          "type": "uint256"
        }
      ],
      "name": "getChainFee",
      "outputs": [
        {
          "internalType": "uint256",
          "name": "out",
          "type": "uint256"
        }
      ],
      "stateMutability": "view",
      "type": "function"
    },
    {
      "inputs": [
        {
          "internalType": "uint256",
          "name": "amount",
          "type": "uint256"
        },
        {
          "internalType": "uint256",
          "name": "rate",
          "type": "uint256"
        }
      ],
      "name": "getFeeValue",
      "outputs": [
        {
          "internalType": "uint256",
          "name": "",
          "type": "uint256"
        }
      ],
      "stateMutability": "pure",
      "type": "function"
    },
    {
      "inputs": [
        {
          "internalType": "address",
          "name": "token",
          "type": "address"
        },
        {
          "internalType": "address",
          "name": "from",
          "type": "address"
        },
        {
          "internalType": "address",
          "name": "to",
          "type": "address"
        },
        {
          "internalType": "uint256",
          "name": "amount",
          "type": "uint256"
        },
        {
          "internalType": "uint256",
          "name": "toChainID",
          "type": "uint256"
        }
      ],
      "name": "getOrderID",
      "outputs": [
        {
          "internalType": "bytes32",
          "name": "",
          "type": "bytes32"
        }
      ],
      "stateMutability": "nonpayable",
      "type": "function"
    },
    {
      "inputs": [
        {
          "internalType": "bytes32",
          "name": "role",
          "type": "bytes32"
        }
      ],
      "name": "getRoleAdmin",
      "outputs": [
        {
          "internalType": "bytes32",
          "name": "",
          "type": "bytes32"
        }
      ],
      "stateMutability": "view",
      "type": "function"
    },
    {
      "inputs": [
        {
          "internalType": "bytes32",
          "name": "role",
          "type": "bytes32"
        },
        {
          "internalType": "address",
          "name": "account",
          "type": "address"
        }
      ],
      "name": "grantRole",
      "outputs": [],
      "stateMutability": "nonpayable",
      "type": "function"
    },
    {
      "inputs": [
        {
          "internalType": "bytes32",
          "name": "role",
          "type": "bytes32"
        },
        {
          "internalType": "address",
          "name": "account",
          "type": "address"
        }
      ],
      "name": "hasRole",
      "outputs": [
        {
          "internalType": "bool",
          "name": "",
          "type": "bool"
        }
      ],
      "stateMutability": "view",
      "type": "function"
    },
    {
      "inputs": [
        {
          "internalType": "address",
          "name": "_wToken",
          "type": "address"
        },
        {
          "internalType": "address",
          "name": "_mapToken",
          "type": "address"
        }
      ],
      "name": "initialize",
      "outputs": [],
      "stateMutability": "nonpayable",
      "type": "function"
    },
    {
      "inputs": [],
      "name": "mapToken",
      "outputs": [
        {
          "internalType": "contract IERC20",
          "name": "",
          "type": "address"
        }
      ],
      "stateMutability": "view",
      "type": "function"
    },
    {
      "inputs": [],
      "name": "nonce",
      "outputs": [
        {
          "internalType": "uint256",
          "name": "",
          "type": "uint256"
        }
      ],
      "stateMutability": "view",
      "type": "function"
    },
    {
      "inputs": [],
      "name": "paused",
      "outputs": [
        {
          "internalType": "bool",
          "name": "",
          "type": "bool"
        }
      ],
      "stateMutability": "view",
      "type": "function"
    },
    {
      "inputs": [
        {
          "internalType": "address[]",
          "name": "token",
          "type": "address[]"
        }
      ],
      "name": "removeAuthToken",
      "outputs": [],
      "stateMutability": "nonpayable",
      "type": "function"
    },
    {
      "inputs": [
        {
          "internalType": "address",
          "name": "manager",
          "type": "address"
        }
      ],
      "name": "removeManager",
      "outputs": [],
      "stateMutability": "nonpayable",
      "type": "function"
    },
    {
      "inputs": [
        {
          "internalType": "bytes32",
          "name": "role",
          "type": "bytes32"
        },
        {
          "internalType": "address",
          "name": "account",
          "type": "address"
        }
      ],
      "name": "renounceRole",
      "outputs": [],
      "stateMutability": "nonpayable",
      "type": "function"
    },
    {
      "inputs": [
        {
          "internalType": "bytes32",
          "name": "role",
          "type": "bytes32"
        },
        {
          "internalType": "address",
          "name": "account",
          "type": "address"
        }
      ],
      "name": "revokeRole",
      "outputs": [],
      "stateMutability": "nonpayable",
      "type": "function"
    },
    {
      "inputs": [],
      "name": "selfChainId",
      "outputs": [
        {
          "internalType": "uint256",
          "name": "",
          "type": "uint256"
        }
      ],
      "stateMutability": "view",
      "type": "function"
    },
    {
      "inputs": [
        {
          "internalType": "address",
          "name": "fee",
          "type": "address"
        }
      ],
      "name": "setFeeCenter",
      "outputs": [],
      "stateMutability": "nonpayable",
      "type": "function"
    },
    {
      "inputs": [],
      "name": "setPause",
      "outputs": [],
      "stateMutability": "nonpayable",
      "type": "function"
    },
    {
      "inputs": [],
      "name": "setUnpause",
      "outputs": [],
      "stateMutability": "nonpayable",
      "type": "function"
    },
    {
      "inputs": [
        {
          "internalType": "uint256",
          "name": "tochain",
          "type": "uint256"
        },
        {
          "internalType": "address",
          "name": "token",
          "type": "address"
        },
        {
          "internalType": "uint256",
          "name": "amount",
          "type": "uint256"
        }
      ],
      "name": "setVaultBalance",
      "outputs": [],
      "stateMutability": "nonpayable",
      "type": "function"
    },
    {
      "inputs": [
        {
          "internalType": "bytes4",
          "name": "interfaceId",
          "type": "bytes4"
        }
      ],
      "name": "supportsInterface",
      "outputs": [
        {
          "internalType": "bool",
          "name": "",
          "type": "bool"
        }
      ],
      "stateMutability": "view",
      "type": "function"
    },
    {
      "inputs": [
        {
          "internalType": "bytes32",
          "name": "",
          "type": "bytes32"
        }
      ],
      "name": "tokenRegister",
      "outputs": [
        {
          "internalType": "address",
          "name": "",
          "type": "address"
        }
      ],
      "stateMutability": "view",
      "type": "function"
    },
    {
      "inputs": [],
      "name": "transferFee",
      "outputs": [
        {
          "internalType": "uint256",
          "name": "",
          "type": "uint256"
        }
      ],
      "stateMutability": "view",
      "type": "function"
    },
    {
      "inputs": [
        {
          "internalType": "address",
          "name": "",
          "type": "address"
        }
      ],
      "name": "transferFeeList",
      "outputs": [
        {
          "internalType": "uint256",
          "name": "",
          "type": "uint256"
        }
      ],
      "stateMutability": "view",
      "type": "function"
    },
    {
      "inputs": [
        {
          "internalType": "address",
          "name": "token",
          "type": "address"
        },
        {
          "internalType": "address",
          "name": "from",
          "type": "address"
        },
        {
          "internalType": "address payable",
          "name": "to",
          "type": "address"
        },
        {
          "internalType": "uint256",
          "name": "amount",
          "type": "uint256"
        },
        {
          "internalType": "bytes32",
          "name": "orderId",
          "type": "bytes32"
        },
        {
          "internalType": "uint256",
          "name": "fromChain",
          "type": "uint256"
        },
        {
          "internalType": "uint256",
          "name": "toChain",
          "type": "uint256"
        }
      ],
      "name": "transferIn",
      "outputs": [],
      "stateMutability": "nonpayable",
      "type": "function"
    },
    {
      "inputs": [
        {
          "internalType": "address",
          "name": "token",
          "type": "address"
        },
        {
          "internalType": "address",
          "name": "to",
          "type": "address"
        },
        {
          "internalType": "uint256",
          "name": "amount",
          "type": "uint256"
        },
        {
          "internalType": "uint256",
          "name": "toChainId",
          "type": "uint256"
        }
      ],
      "name": "transferOut",
      "outputs": [],
      "stateMutability": "nonpayable",
      "type": "function"
    },
    {
      "inputs": [
        {
          "internalType": "address",
          "name": "to",
          "type": "address"
        },
        {
          "internalType": "uint256",
          "name": "toChainId",
          "type": "uint256"
        }
      ],
      "name": "transferOutNative",
      "outputs": [],
      "stateMutability": "payable",
      "type": "function"
    },
    {
      "inputs": [
        {
          "internalType": "uint256",
          "name": "",
          "type": "uint256"
        },
        {
          "internalType": "address",
          "name": "",
          "type": "address"
        }
      ],
      "name": "vaultBalance",
      "outputs": [
        {
          "internalType": "uint256",
          "name": "",
          "type": "uint256"
        }
      ],
      "stateMutability": "view",
      "type": "function"
    },
    {
      "inputs": [],
      "name": "wToken",
      "outputs": [
        {
          "internalType": "address",
          "name": "",
          "type": "address"
        }
      ],
      "stateMutability": "view",
      "type": "function"
    },
    {
      "inputs": [
        {
          "internalType": "address",
          "name": "token",
          "type": "address"
        },
        {
          "internalType": "address payable",
          "name": "receiver",
          "type": "address"
        },
        {
          "internalType": "uint256",
          "name": "amount",
          "type": "uint256"
        }
      ],
      "name": "withdraw",
      "outputs": [],
      "stateMutability": "nonpayable",
      "type": "function"
    },
    {
      "stateMutability": "payable",
      "type": "receive"
    }
  ],
  "bytecode": "0x60806040523480156200001157600080fd5b506001600090815562000025903362000063565b620000517f241ecf16d79d0f8dbfb92cbc07fe17840425976cf0667f022fe9877caa831b083362000063565b6002805462ff000019169055620000fb565b6200006f828262000073565b5050565b60008281526001602090815260408083206001600160a01b038516845290915290205460ff166200006f5760008281526001602081815260408084206001600160a01b0386168086529252808420805460ff19169093179092559051339285917f2f8788117e7eff1d82e926ec794901d17c78024a50270940304540a733656f0d9190a45050565b612d7d806200010b6000396000f3fe6080604052600436106102345760003560e01c80638bc675171161012e578063b2f177b3116100ab578063d9caed121161006f578063d9caed1214610716578063e3257fc714610736578063e5ff943314610756578063e6984f8d14610776578063ec87621c1461078c57600080fd5b8063b2f177b31461067e578063bbe35948146106ab578063cc9e3e89146106cb578063d431b1ac146106e1578063d547741f146106f657600080fd5b8063ab41a6ce116100f2578063ab41a6ce146105ca578063ac18de4314610602578063acb2ad6f14610622578063af65363614610638578063affed0e01461066857600080fd5b80638bc675171461052857806391d14854146105485780639485d29314610568578063a217fddf14610588578063a8f8c2931461059d57600080fd5b80634307e0a2116101bc578063721d839e11610180578063721d839e1461049357806375b2e6b9146104b357806378f88fd6146104d3578063848cb5c6146104f3578063893803951461050857600080fd5b80634307e0a21461040257806343b5090514610422578063485cc955146104355780635c975abb146104555780635eb332681461047357600080fd5b80632982edbe116102035780632982edbe1461036f5780632d06177a1461038f5780632f2ff15d146103af57806335f855c8146103cf57806336568abe146103e257600080fd5b806301ffc9a71461028d5780630babd864146102c257806315e652c7146102fa578063248a9ca31461033057600080fd5b36610288576005546001600160a01b031633146102865760405162461bcd60e51b815260206004820152600b60248201526a37b7363c903baa37b5b2b760a91b60448201526064015b60405180910390fd5b005b600080fd5b34801561029957600080fd5b506102ad6102a8366004612a4e565b6107ae565b60405190151581526020015b60405180910390f35b3480156102ce57600080fd5b506005546102e2906001600160a01b031681565b6040516001600160a01b0390911681526020016102b9565b34801561030657600080fd5b506102e2610315366004612a10565b6007602052600090815260409020546001600160a01b031681565b34801561033c57600080fd5b5061036161034b366004612a10565b6000908152600160208190526040909120015490565b6040519081526020016102b9565b34801561037b57600080fd5b5061036161038a366004612a91565b6107e5565b34801561039b57600080fd5b506102866103aa3660046126a0565b610897565b3480156103bb57600080fd5b506102866103ca366004612a29565b6108bf565b6102866103dd366004612754565b6108eb565b3480156103ee57600080fd5b506102866103fd366004612a29565b610d59565b34801561040e57600080fd5b5061028661041d3660046127b9565b610dd3565b6102866104303660046128c8565b6111f7565b34801561044157600080fd5b506102866104503660046126da565b6113e2565b34801561046157600080fd5b5060025462010000900460ff166102ad565b34801561047f57600080fd5b5061028661048e366004612882565b6114f6565b34801561049f57600080fd5b506102866104ae3660046126a0565b611755565b3480156104bf57600080fd5b50600f546102e2906001600160a01b031681565b3480156104df57600080fd5b506103616104ee366004612ab8565b6117ab565b3480156104ff57600080fd5b506102866117cb565b34801561051457600080fd5b50610361610523366004612827565b611809565b34801561053457600080fd5b50610286610543366004612922565b611894565b34801561055457600080fd5b506102ad610563366004612a29565b611930565b34801561057457600080fd5b506004546102e2906001600160a01b031681565b34801561059457600080fd5b50610361600081565b3480156105a957600080fd5b506103616105b83660046126a0565b600c6020526000908152604090205481565b3480156105d657600080fd5b506103616105e5366004612a29565b600e60209081526000928352604080842090915290825290205481565b34801561060e57600080fd5b5061028661061d3660046126a0565b61195b565b34801561062e57600080fd5b50610361600b5481565b34801561064457600080fd5b506102ad6106533660046126a0565b600d6020526000908152604090205460ff1681565b34801561067457600080fd5b5061036160035481565b34801561068a57600080fd5b50610361610699366004612a10565b60086020526000908152604090205481565b3480156106b757600080fd5b506102866106c6366004612922565b61197f565b3480156106d757600080fd5b5061036160065481565b3480156106ed57600080fd5b50610286611a1b565b34801561070257600080fd5b50610286610711366004612a29565b611a57565b34801561072257600080fd5b50610286610731366004612713565b611a7e565b34801561074257600080fd5b50610286610751366004612a91565b611bdc565b34801561076257600080fd5b50610286610771366004612a29565b611c36565b34801561078257600080fd5b50610361600a5481565b34801561079857600080fd5b50610361600080516020612d2883398151915281565b60006001600160e01b03198216637965db0b60e01b14806107df57506301ffc9a760e01b6001600160e01b03198316145b92915050565b60006001600160a01b038316610804576005546001600160a01b031692505b600f54604051638ee6bebb60e01b8152600481018690526001600160a01b0385811660248301526044820185905290911690638ee6bebb9060640160206040518083038186803b15801561085757600080fd5b505afa15801561086b573d6000803e3d6000fd5b505050506040513d601f19601f8201168201806040525081019061088f9190612a78565b949350505050565b60006108a38133611ded565b6108bb600080516020612d2883398151915283611e51565b5050565b600082815260016020819052604090912001546108dc8133611ded565b6108e68383611e57565b505050565b600082815260096020526040902054829060ff161561093a5760405162461bcd60e51b815260206004820152600b60248201526a1bdc99195c88195e1a5cdd60aa1b604482015260640161027d565b6000818152600960205260408120805460ff1916600117905554600214156109a45760405162461bcd60e51b815260206004820152601f60248201527f5265656e7472616e637947756172643a207265656e7472616e742063616c6c00604482015260640161027d565b60026000556109c1600080516020612d2883398151915233611930565b6109dd5760405162461bcd60e51b815260040161027d90612b9e565b60025462010000900460ff1615610a065760405162461bcd60e51b815260040161027d90612bd5565b6001600160a01b038716610a7e57600560009054906101000a90046001600160a01b03166001600160a01b031663d0e30db0856040518263ffffffff1660e01b81526004016000604051808303818588803b158015610a6457600080fd5b505af1158015610a78573d6000803e3d6000fd5b50505050505b600f54604051639dc6108f60e01b81526001600160a01b0389811660048301526000921690639dc6108f9060240160206040518083038186803b158015610ac457600080fd5b505afa158015610ad8573d6000803e3d6000fd5b505050506040513d601f19601f82011682018060405250810190610afc91906126bd565b90506001600160a01b038116610b475760405162461bcd60e51b815260206004820152601060248201526f37b7363c903b30bab63a103a37b5b2b760811b604482015260640161027d565b80610b6a896001600160a01b03166000908152600d602052604090205460ff1690565b15610bd6576040516340c10f1960e01b81526001600160a01b038381166004830152602482018890528a16906340c10f1990604401600060405180830381600087803b158015610bb957600080fd5b505af1158015610bcd573d6000803e3d6000fd5b50505050610c5a565b60405163a9059cbb60e01b81526001600160a01b038381166004830152602482018890528a169063a9059cbb90604401602060405180830381600087803b158015610c2057600080fd5b505af1158015610c34573d6000803e3d6000fd5b505050506040513d601f19601f82011682018060405250810190610c5891906129ee565b505b604051631020440360e31b8152600481018790526001600160a01b038881166024830152821690638102201890604401600060405180830381600087803b158015610ca457600080fd5b505af1158015610cb8573d6000803e3d6000fd5b5050506000858152600e602090815260408083206001600160a01b038e16845290915281208054899350909190610cf0908490612bff565b909155505060408051868152602081018890529081018590526001600160a01b03808916918a8216918c16907fded9ef8b5d30813719b17dc37bf84b702e1a116098eb6477a46d23cda228ca049060600160405180910390a45050600160005550505050505050565b6001600160a01b0381163314610dc95760405162461bcd60e51b815260206004820152602f60248201527f416363657373436f6e74726f6c3a2063616e206f6e6c792072656e6f756e636560448201526e103937b632b9903337b91039b2b63360891b606482015260840161027d565b6108bb8282611ec2565b600083815260096020526040902054839060ff1615610e225760405162461bcd60e51b815260206004820152600b60248201526a1bdc99195c88195e1a5cdd60aa1b604482015260640161027d565b6000818152600960205260408120805460ff191660011790555460021415610e8c5760405162461bcd60e51b815260206004820152601f60248201527f5265656e7472616e637947756172643a207265656e7472616e742063616c6c00604482015260640161027d565b6002600055610ea9600080516020612d2883398151915233611930565b610ec55760405162461bcd60e51b815260040161027d90612b9e565b60025462010000900460ff1615610eee5760405162461bcd60e51b815260040161027d90612bd5565b6000610efb838a886107e5565b90506000610f098783611f29565b9050600654841415611102576001600160a01b038a16610f4857600554610f39906001600160a01b031682611f35565b610f43888261204b565b611098565b6001600160a01b038a166000908152600d602052604090205460ff1615610fd4576040516340c10f1960e01b8152306004820152602481018890526001600160a01b038b16906340c10f1990604401600060405180830381600087803b158015610fb157600080fd5b505af1158015610fc5573d6000803e3d6000fd5b50505050610f438a8989612114565b6040516370a0823160e01b815230600482015287906001600160a01b038c16906370a082319060240160206040518083038186803b15801561101557600080fd5b505afa158015611029573d6000803e3d6000fd5b505050506040513d601f19601f8201168201806040525081019061104d9190612a78565b101561108d5760405162461bcd60e51b815260206004820152600f60248201526e62616c616e636520746f6f206c6f7760881b604482015260640161027d565b6110988a8983612114565b6110a2828b611c36565b6040805187815260208101839052908101869052606081018590526001600160a01b03808a1691908b16906000907faad25eb4a95d4676af58a305d0c74510457f2d74c3576d87818389669f7d4d9c9060800160405180910390a46111da565b6001600160a01b038a166000908152600d602052604090205460ff161561117e57604051630852cd8d60e31b8152600481018290526001600160a01b038b16906342966c6890602401600060405180830381600087803b15801561116557600080fd5b505af1158015611179573d6000803e3d6000fd5b505050505b6040805187815260208101839052908101869052606081018590526001600160a01b03808a16918b8216918d16907f55b6db7dd8522bdf7ec2d1fb141241ed070d807546f1619b46d2e5844576395a9060800160405180910390a45b6111e68786868d61222f565b505060016000555050505050505050565b60025462010000900460ff16156112205760405162461bcd60e51b815260040161027d90612bd5565b348061125e5760405162461bcd60e51b815260206004820152600d60248201526c76616c756520746f6f206c6f7760981b604482015260640161027d565b600560009054906101000a90046001600160a01b03166001600160a01b031663d0e30db0826040518263ffffffff1660e01b81526004016000604051808303818588803b1580156112ae57600080fd5b505af11580156112c2573d6000803e3d6000fd5b505050505060006112d5836000846107e5565b905060006112e38383611f29565b90506112f0826000611c36565b60008052600c6020527f13649b2456f1b42fef0f0040b3aaeabcd21a76a0f3f5defd4f583839455116e85461133190829061132b90866122a3565b90611f29565b6000808052600c6020527f13649b2456f1b42fef0f0040b3aaeabcd21a76a0f3f5defd4f583839455116e89190915561136d8133888589611809565b905061137e8460065487600061222f565b600654604080518381526020810185905290810191909152606081018690526001600160a01b0387169033906000907f55b6db7dd8522bdf7ec2d1fb141241ed070d807546f1619b46d2e5844576395a9060800160405180910390a4505050505050565b600254610100900460ff166113fd5760025460ff1615611401565b303b155b6114645760405162461bcd60e51b815260206004820152602e60248201527f496e697469616c697a61626c653a20636f6e747261637420697320616c72656160448201526d191e481a5b9a5d1a585b1a5e995960921b606482015260840161027d565b600254610100900460ff16158015611486576002805461ffff19166101011790555b466006819055600580546001600160a01b038087166001600160a01b03199283161790925560048054928616929091169190911790556114c7600033611e51565b6114df600080516020612d2883398151915233611e51565b5080156108e6576002805461ff0019169055505050565b60025462010000900460ff161561151f5760405162461bcd60e51b815260040161027d90612bd5565b6040516370a0823160e01b815233600482015282906001600160a01b038616906370a082319060240160206040518083038186803b15801561156057600080fd5b505afa158015611574573d6000803e3d6000fd5b505050506040513d601f19601f820116820180604052508101906115989190612a78565b10156115d85760405162461bcd60e51b815260206004820152600f60248201526e62616c616e636520746f6f206c6f7760881b604482015260640161027d565b6115e4843330856122af565b60006115f18286856107e5565b905060006115ff8483611f29565b9050611623866001600160a01b03166000908152600d602052604090205460ff1690565b1561168357604051630852cd8d60e31b8152600481018290526001600160a01b038716906342966c6890602401600060405180830381600087803b15801561166a57600080fd5b505af115801561167e573d6000803e3d6000fd5b505050505b61168d8287611c36565b6001600160a01b0386166000908152600c60205260409020546116b690829061132b90876122a3565b6001600160a01b0387166000908152600c60205260408120919091556116df8733888588611809565b90506116ef85600654868a61222f565b600654604080518381526020810185905290810191909152606081018590526001600160a01b038088169133918a16907f55b6db7dd8522bdf7ec2d1fb141241ed070d807546f1619b46d2e5844576395a9060800160405180910390a450505050505050565b61176d600080516020612d2883398151915233611930565b6117895760405162461bcd60e51b815260040161027d90612b9e565b600f80546001600160a01b0319166001600160a01b0392909216919091179055565b60006117c4620f42406117be85856123df565b906123eb565b9392505050565b6117e3600080516020612d2883398151915233611930565b6117ff5760405162461bcd60e51b815260040161027d90612b9e565b6118076123f7565b565b600380546000918261181a83612cb2565b909155506006546040805160208101939093526bffffffffffffffffffffffff19606089811b82169285019290925287821b811660548501529089901b166068830152607c8201859052609c82015260bc810183905260dc0160405160208183030381529060405280519060200120905095945050505050565b6118ac600080516020612d2883398151915233611930565b6118c85760405162461bcd60e51b815260040161027d90612b9e565b60005b81518110156108bb576000600d60008484815181106118ec576118ec612ce3565b6020908102919091018101516001600160a01b03168252810191909152604001600020805460ff19169115159190911790558061192881612cb2565b9150506118cb565b60009182526001602090815260408084206001600160a01b0393909316845291905290205460ff1690565b60006119678133611ded565b6108bb600080516020612d2883398151915283611ec2565b611997600080516020612d2883398151915233611930565b6119b35760405162461bcd60e51b815260040161027d90612b9e565b60005b81518110156108bb576001600d60008484815181106119d7576119d7612ce3565b6020908102919091018101516001600160a01b03168252810191909152604001600020805460ff191691151591909117905580611a1381612cb2565b9150506119b6565b611a33600080516020612d2883398151915233611930565b611a4f5760405162461bcd60e51b815260040161027d90612b9e565b611807612492565b60008281526001602081905260409091200154611a748133611ded565b6108e68383611ec2565b611a96600080516020612d2883398151915233611930565b611ab25760405162461bcd60e51b815260040161027d90612b9e565b6001600160a01b038316611b5a57600554604051632e1a7d4d60e01b8152600481018390526001600160a01b0390911690632e1a7d4d90602401600060405180830381600087803b158015611b0657600080fd5b505af1158015611b1a573d6000803e3d6000fd5b50506040516001600160a01b038516925083156108fc02915083906000818181858888f19350505050158015611b54573d6000803e3d6000fd5b50505050565b60405163a9059cbb60e01b81526001600160a01b0383811660048301526024820183905284169063a9059cbb90604401602060405180830381600087803b158015611ba457600080fd5b505af1158015611bb8573d6000803e3d6000fd5b505050506040513d601f19601f82011682018060405250810190611b5491906129ee565b611bf4600080516020612d2883398151915233611930565b611c105760405162461bcd60e51b815260040161027d90612b9e565b6000928352600e602090815260408085206001600160a01b039094168552929052912055565b806001600160a01b038116611c5357506005546001600160a01b03165b828015611b5457600f5460405163116d92c960e11b81526000600482018190526001600160a01b038681166024840152909283929116906322db259290604401604080518083038186803b158015611caa57600080fd5b505afa158015611cbe573d6000803e3d6000fd5b505050506040513d601f19601f82011682018060405250810190611ce291906128f4565b915091506000611cf287836117ab565b90506001600160a01b03831615611d1b57611d0e858483612114565b611d188185612c58565b93505b600f5460405163116d92c960e11b8152600160048201526001600160a01b038881166024830152909116906322db259290604401604080518083038186803b158015611d6657600080fd5b505afa158015611d7a573d6000803e3d6000fd5b505050506040513d601f19601f82011682018060405250810190611d9e91906128f4565b9093509150611dad87836117ab565b9050611dba858483612114565b611dc48185612c58565b93508315611de457600f54611de49086906001600160a01b031686612114565b50505050505050565b611df78282611930565b6108bb57611e0f816001600160a01b031660146124f4565b611e1a8360206124f4565b604051602001611e2b929190612af6565b60408051601f198184030181529082905262461bcd60e51b825261027d91600401612b6b565b6108bb82825b611e618282611930565b6108bb5760008281526001602081815260408084206001600160a01b0386168086529252808420805460ff19169093179092559051339285917f2f8788117e7eff1d82e926ec794901d17c78024a50270940304540a733656f0d9190a45050565b611ecc8282611930565b156108bb5760008281526001602090815260408083206001600160a01b0385168085529252808320805460ff1916905551339285917ff6391f5c32d9c69d2a47ea670b442974b53935d1edc7fd64eb21e047a839171b9190a45050565b60006117c48284612c58565b600080836001600160a01b0316632e1a7d4d84604051602401611f5a91815260200190565b6040516020818303038152906040529060e01b6020820180516001600160e01b038381831617835250505050604051611f939190612ada565b6000604051808303816000865af19150503d8060008114611fd0576040519150601f19603f3d011682016040523d82523d6000602084013e611fd5565b606091505b5091509150818015611fff575080511580611fff575080806020019051810190611fff91906129ee565b611b545760405162461bcd60e51b815260206004820152601f60248201527f5472616e7366657248656c7065723a2057695448445241575f4641494c454400604482015260640161027d565b604080516000808252602082019092526001600160a01b0384169083906040516120759190612ada565b60006040518083038185875af1925050503d80600081146120b2576040519150601f19603f3d011682016040523d82523d6000602084013e6120b7565b606091505b50509050806108e65760405162461bcd60e51b815260206004820152602360248201527f5472616e7366657248656c7065723a204554485f5452414e534645525f46414960448201526213115160ea1b606482015260840161027d565b604080516001600160a01b038481166024830152604480830185905283518084039091018152606490920183526020820180516001600160e01b031663a9059cbb60e01b17905291516000928392908716916121709190612ada565b6000604051808303816000865af19150503d80600081146121ad576040519150601f19603f3d011682016040523d82523d6000602084013e6121b2565b606091505b50915091508180156121dc5750805115806121dc5750808060200190518101906121dc91906129ee565b6122285760405162461bcd60e51b815260206004820152601f60248201527f5472616e7366657248656c7065723a205452414e534645525f4641494c454400604482015260640161027d565b5050505050565b6000838152600e602090815260408083206001600160a01b038516845290915281208054869290612261908490612bff565b90915550506000828152600e602090815260408083206001600160a01b038516845290915281208054869290612298908490612c58565b909155505050505050565b60006117c48284612bff565b604080516001600160a01b0385811660248301528481166044830152606480830185905283518084039091018152608490920183526020820180516001600160e01b03166323b872dd60e01b17905291516000928392908816916123139190612ada565b6000604051808303816000865af19150503d8060008114612350576040519150601f19603f3d011682016040523d82523d6000602084013e612355565b606091505b509150915081801561237f57508051158061237f57508080602001905181019061237f91906129ee565b6123d75760405162461bcd60e51b8152602060048201526024808201527f5472616e7366657248656c7065723a205452414e534645525f46524f4d5f46416044820152631253115160e21b606482015260840161027d565b505050505050565b60006117c48284612c39565b60006117c48284612c17565b60025462010000900460ff166124465760405162461bcd60e51b815260206004820152601460248201527314185d5cd8589b194e881b9bdd081c185d5cd95960621b604482015260640161027d565b6002805462ff0000191690557f5db9ee0a495bf2e6ff9c91a7834c1ba4fdd244a5e8aa4e537bd38aeae4b073aa335b6040516001600160a01b03909116815260200160405180910390a1565b60025462010000900460ff16156124bb5760405162461bcd60e51b815260040161027d90612bd5565b6002805462ff00001916620100001790557f62e78cea01bee320cd4e420270b5ea74000d11b0c9f74754ebdbfc544b05a2586124753390565b60606000612503836002612c39565b61250e906002612bff565b67ffffffffffffffff81111561252657612526612cf9565b6040519080825280601f01601f191660200182016040528015612550576020820181803683370190505b509050600360fc1b8160008151811061256b5761256b612ce3565b60200101906001600160f81b031916908160001a905350600f60fb1b8160018151811061259a5761259a612ce3565b60200101906001600160f81b031916908160001a90535060006125be846002612c39565b6125c9906001612bff565b90505b6001811115612641576f181899199a1a9b1b9c1cb0b131b232b360811b85600f16601081106125fd576125fd612ce3565b1a60f81b82828151811061261357612613612ce3565b60200101906001600160f81b031916908160001a90535060049490941c9361263a81612c9b565b90506125cc565b5083156117c45760405162461bcd60e51b815260206004820181905260248201527f537472696e67733a20686578206c656e67746820696e73756666696369656e74604482015260640161027d565b803561269b81612d0f565b919050565b6000602082840312156126b257600080fd5b81356117c481612d0f565b6000602082840312156126cf57600080fd5b81516117c481612d0f565b600080604083850312156126ed57600080fd5b82356126f881612d0f565b9150602083013561270881612d0f565b809150509250929050565b60008060006060848603121561272857600080fd5b833561273381612d0f565b9250602084013561274381612d0f565b929592945050506040919091013590565b60008060008060008060c0878903121561276d57600080fd5b863561277881612d0f565b9550602087013561278881612d0f565b9450604087013561279881612d0f565b959894975094956060810135955060808101359460a0909101359350915050565b600080600080600080600060e0888a0312156127d457600080fd5b87356127df81612d0f565b965060208801356127ef81612d0f565b955060408801356127ff81612d0f565b969995985095966060810135965060808101359560a0820135955060c0909101359350915050565b600080600080600060a0868803121561283f57600080fd5b853561284a81612d0f565b9450602086013561285a81612d0f565b9350604086013561286a81612d0f565b94979396509394606081013594506080013592915050565b6000806000806080858703121561289857600080fd5b84356128a381612d0f565b935060208501356128b381612d0f565b93969395505050506040820135916060013590565b600080604083850312156128db57600080fd5b82356128e681612d0f565b946020939093013593505050565b6000806040838503121561290757600080fd5b825161291281612d0f565b6020939093015192949293505050565b6000602080838503121561293557600080fd5b823567ffffffffffffffff8082111561294d57600080fd5b818501915085601f83011261296157600080fd5b81358181111561297357612973612cf9565b8060051b604051601f19603f8301168101818110858211171561299857612998612cf9565b604052828152858101935084860182860187018a10156129b757600080fd5b600095505b838610156129e1576129cd81612690565b8552600195909501949386019386016129bc565b5098975050505050505050565b600060208284031215612a0057600080fd5b815180151581146117c457600080fd5b600060208284031215612a2257600080fd5b5035919050565b60008060408385031215612a3c57600080fd5b82359150602083013561270881612d0f565b600060208284031215612a6057600080fd5b81356001600160e01b0319811681146117c457600080fd5b600060208284031215612a8a57600080fd5b5051919050565b600080600060608486031215612aa657600080fd5b83359250602084013561274381612d0f565b60008060408385031215612acb57600080fd5b50508035926020909101359150565b60008251612aec818460208701612c6f565b9190910192915050565b7f416363657373436f6e74726f6c3a206163636f756e7420000000000000000000815260008351612b2e816017850160208801612c6f565b7001034b99036b4b9b9b4b733903937b6329607d1b6017918401918201528351612b5f816028840160208801612c6f565b01602801949350505050565b6020815260008251806020840152612b8a816040850160208701612c6f565b601f01601f19169190910160400192915050565b60208082526017908201527f43616c6c6572206973206e6f742061206d616e61676572000000000000000000604082015260600190565b60208082526010908201526f14185d5cd8589b194e881c185d5cd95960821b604082015260600190565b60008219821115612c1257612c12612ccd565b500190565b600082612c3457634e487b7160e01b600052601260045260246000fd5b500490565b6000816000190483118215151615612c5357612c53612ccd565b500290565b600082821015612c6a57612c6a612ccd565b500390565b60005b83811015612c8a578181015183820152602001612c72565b83811115611b545750506000910152565b600081612caa57612caa612ccd565b506000190190565b6000600019821415612cc657612cc6612ccd565b5060010190565b634e487b7160e01b600052601160045260246000fd5b634e487b7160e01b600052603260045260246000fd5b634e487b7160e01b600052604160045260246000fd5b6001600160a01b0381168114612d2457600080fd5b5056fe241ecf16d79d0f8dbfb92cbc07fe17840425976cf0667f022fe9877caa831b08a264697066735822122088f2162ffa0ee308ca5a5ffa56743bcdb2e8078428ed2d92e8ea865c10e8427864736f6c63430008070033",
  "linkReferences": {},
  "deployedLinkReferences": {}
}