{
  "_format": "hh-sol-artifact-1",
  "contractName": "MasterChef",
  "sourceName": "contracts/mining/MasterChef.sol",
  "abi": [
    {
      "inputs": [
        {
          "internalType": "address",
          "name": "_sushi",
          "type": "address"
        },
        {
          "internalType": "uint256",
          "name": "_sushiPerBlock",
          "type": "uint256"
        },
        {
          "internalType": "uint256",
          "name": "_startBlock",
          "type": "uint256"
        },
        {
          "internalType": "uint256",
          "name": "_bonusEndBlock",
          "type": "uint256"
        }
      ],
      "stateMutability": "nonpayable",
      "type": "constructor"
    },
    {
      "anonymous": false,
      "inputs": [
        {
          "indexed": true,
          "internalType": "address",
          "name": "user",
          "type": "address"
        },
        {
          "indexed": true,
          "internalType": "uint256",
          "name": "pid",
          "type": "uint256"
        },
        {
          "indexed": false,
          "internalType": "uint256",
          "name": "amount",
          "type": "uint256"
        }
      ],
      "name": "Deposit",
      "type": "event"
    },
    {
      "anonymous": false,
      "inputs": [
        {
          "indexed": true,
          "internalType": "address",
          "name": "user",
          "type": "address"
        },
        {
          "indexed": true,
          "internalType": "uint256",
          "name": "pid",
          "type": "uint256"
        },
        {
          "indexed": false,
          "internalType": "uint256",
          "name": "amount",
          "type": "uint256"
        }
      ],
      "name": "EmergencyWithdraw",
      "type": "event"
    },
    {
      "anonymous": false,
      "inputs": [
        {
          "indexed": true,
          "internalType": "address",
          "name": "previousOwner",
          "type": "address"
        },
        {
          "indexed": true,
          "internalType": "address",
          "name": "newOwner",
          "type": "address"
        }
      ],
      "name": "OwnershipTransferred",
      "type": "event"
    },
    {
      "anonymous": false,
      "inputs": [
        {
          "indexed": true,
          "internalType": "address",
          "name": "user",
          "type": "address"
        },
        {
          "indexed": true,
          "internalType": "uint256",
          "name": "pid",
          "type": "uint256"
        },
        {
          "indexed": false,
          "internalType": "uint256",
          "name": "amount",
          "type": "uint256"
        }
      ],
      "name": "Withdraw",
      "type": "event"
    },
    {
      "inputs": [
        {
          "internalType": "uint256",
          "name": "_allocPoint",
          "type": "uint256"
        },
        {
          "internalType": "contract IERC20",
          "name": "_lpToken",
          "type": "address"
        },
        {
          "internalType": "bool",
          "name": "_withUpdate",
          "type": "bool"
        }
      ],
      "name": "add",
      "outputs": [],
      "stateMutability": "nonpayable",
      "type": "function"
    },
    {
      "inputs": [],
      "name": "bonusEndBlock",
      "outputs": [
        {
          "internalType": "uint256",
          "name": "",
          "type": "uint256"
        }
      ],
      "stateMutability": "view",
      "type": "function"
    },
    {
      "inputs": [
        {
          "internalType": "uint256",
          "name": "_pid",
          "type": "uint256"
        },
        {
          "internalType": "uint256",
          "name": "_amount",
          "type": "uint256"
        }
      ],
      "name": "deposit",
      "outputs": [],
      "stateMutability": "nonpayable",
      "type": "function"
    },
    {
      "inputs": [],
      "name": "devaddr",
      "outputs": [
        {
          "internalType": "address",
          "name": "",
          "type": "address"
        }
      ],
      "stateMutability": "view",
      "type": "function"
    },
    {
      "inputs": [
        {
          "internalType": "uint256",
          "name": "_pid",
          "type": "uint256"
        }
      ],
      "name": "emergencyWithdraw",
      "outputs": [],
      "stateMutability": "nonpayable",
      "type": "function"
    },
    {
      "inputs": [
        {
          "internalType": "uint256",
          "name": "_from",
          "type": "uint256"
        },
        {
          "internalType": "uint256",
          "name": "_to",
          "type": "uint256"
        }
      ],
      "name": "getMultiplier",
      "outputs": [
        {
          "internalType": "uint256",
          "name": "",
          "type": "uint256"
        }
      ],
      "stateMutability": "view",
      "type": "function"
    },
    {
      "inputs": [
        {
          "internalType": "uint256",
          "name": "",
          "type": "uint256"
        }
      ],
      "name": "lpAmount",
      "outputs": [
        {
          "internalType": "uint256",
          "name": "",
          "type": "uint256"
        }
      ],
      "stateMutability": "view",
      "type": "function"
    },
    {
      "inputs": [],
      "name": "massUpdatePools",
      "outputs": [],
      "stateMutability": "nonpayable",
      "type": "function"
    },
    {
      "inputs": [
        {
          "internalType": "uint256",
          "name": "_pid",
          "type": "uint256"
        }
      ],
      "name": "migrate",
      "outputs": [],
      "stateMutability": "nonpayable",
      "type": "function"
    },
    {
      "inputs": [],
      "name": "migrator",
      "outputs": [
        {
          "internalType": "contract IMigratorChef",
          "name": "",
          "type": "address"
        }
      ],
      "stateMutability": "view",
      "type": "function"
    },
    {
      "inputs": [],
      "name": "owner",
      "outputs": [
        {
          "internalType": "address",
          "name": "",
          "type": "address"
        }
      ],
      "stateMutability": "view",
      "type": "function"
    },
    {
      "inputs": [
        {
          "internalType": "uint256",
          "name": "_pid",
          "type": "uint256"
        },
        {
          "internalType": "address",
          "name": "_user",
          "type": "address"
        }
      ],
      "name": "pendingSushi",
      "outputs": [
        {
          "internalType": "uint256",
          "name": "",
          "type": "uint256"
        }
      ],
      "stateMutability": "view",
      "type": "function"
    },
    {
      "inputs": [
        {
          "internalType": "uint256",
          "name": "",
          "type": "uint256"
        }
      ],
      "name": "poolInfo",
      "outputs": [
        {
          "internalType": "contract IERC20",
          "name": "lpToken",
          "type": "address"
        },
        {
          "internalType": "uint256",
          "name": "allocPoint",
          "type": "uint256"
        },
        {
          "internalType": "uint256",
          "name": "lastRewardBlock",
          "type": "uint256"
        },
        {
          "internalType": "uint256",
          "name": "accSushiPerShare",
          "type": "uint256"
        }
      ],
      "stateMutability": "view",
      "type": "function"
    },
    {
      "inputs": [],
      "name": "poolLength",
      "outputs": [
        {
          "internalType": "uint256",
          "name": "",
          "type": "uint256"
        }
      ],
      "stateMutability": "view",
      "type": "function"
    },
    {
      "inputs": [],
      "name": "renounceOwnership",
      "outputs": [],
      "stateMutability": "nonpayable",
      "type": "function"
    },
    {
      "inputs": [
        {
          "internalType": "uint256",
          "name": "_pid",
          "type": "uint256"
        },
        {
          "internalType": "uint256",
          "name": "_allocPoint",
          "type": "uint256"
        },
        {
          "internalType": "bool",
          "name": "_withUpdate",
          "type": "bool"
        }
      ],
      "name": "set",
      "outputs": [],
      "stateMutability": "nonpayable",
      "type": "function"
    },
    {
      "inputs": [
        {
          "internalType": "contract IMigratorChef",
          "name": "_migrator",
          "type": "address"
        }
      ],
      "name": "setMigrator",
      "outputs": [],
      "stateMutability": "nonpayable",
      "type": "function"
    },
    {
      "inputs": [],
      "name": "startBlock",
      "outputs": [
        {
          "internalType": "uint256",
          "name": "",
          "type": "uint256"
        }
      ],
      "stateMutability": "view",
      "type": "function"
    },
    {
      "inputs": [],
      "name": "sushi",
      "outputs": [
        {
          "internalType": "contract IERC20",
          "name": "",
          "type": "address"
        }
      ],
      "stateMutability": "view",
      "type": "function"
    },
    {
      "inputs": [],
      "name": "sushiPerBlock",
      "outputs": [
        {
          "internalType": "uint256",
          "name": "",
          "type": "uint256"
        }
      ],
      "stateMutability": "view",
      "type": "function"
    },
    {
      "inputs": [],
      "name": "totalAllocPoint",
      "outputs": [
        {
          "internalType": "uint256",
          "name": "",
          "type": "uint256"
        }
      ],
      "stateMutability": "view",
      "type": "function"
    },
    {
      "inputs": [
        {
          "internalType": "address",
          "name": "newOwner",
          "type": "address"
        }
      ],
      "name": "transferOwnership",
      "outputs": [],
      "stateMutability": "nonpayable",
      "type": "function"
    },
    {
      "inputs": [
        {
          "internalType": "uint256",
          "name": "_pid",
          "type": "uint256"
        }
      ],
      "name": "updatePool",
      "outputs": [],
      "stateMutability": "nonpayable",
      "type": "function"
    },
    {
      "inputs": [
        {
          "internalType": "uint256",
          "name": "_sushiPerBlock",
          "type": "uint256"
        }
      ],
      "name": "updateSushiPerBlock",
      "outputs": [],
      "stateMutability": "nonpayable",
      "type": "function"
    },
    {
      "inputs": [
        {
          "internalType": "uint256",
          "name": "",
          "type": "uint256"
        },
        {
          "internalType": "address",
          "name": "",
          "type": "address"
        }
      ],
      "name": "userInfo",
      "outputs": [
        {
          "internalType": "uint256",
          "name": "amount",
          "type": "uint256"
        },
        {
          "internalType": "uint256",
          "name": "rewardDebt",
          "type": "uint256"
        }
      ],
      "stateMutability": "view",
      "type": "function"
    },
    {
      "inputs": [
        {
          "internalType": "uint256",
          "name": "_pid",
          "type": "uint256"
        },
        {
          "internalType": "uint256",
          "name": "_amount",
          "type": "uint256"
        }
      ],
      "name": "withdraw",
      "outputs": [],
      "stateMutability": "nonpayable",
      "type": "function"
    },
    {
      "inputs": [
        {
          "internalType": "address",
          "name": "_to",
          "type": "address"
        },
        {
          "internalType": "uint256",
          "name": "_amount",
          "type": "uint256"
        }
      ],
      "name": "withdrawToken",
      "outputs": [],
      "stateMutability": "nonpayable",
      "type": "function"
    }
  ],
  "bytecode": "0x6080604052600060095534801561001557600080fd5b50604051611aa6380380611aa6833981016040819052610034916100c2565b61003d33610072565b600180546001600160a01b0319166001600160a01b039590951694909417909355600491909155600391909155600a5561010d565b600080546001600160a01b038381166001600160a01b0319831681178455604051919092169283917f8be0079c531659141344cd1fd0a4f28419497f9722a3daafe3b4186f6b6457e09190a35050565b600080600080608085870312156100d857600080fd5b84516001600160a01b03811681146100ef57600080fd5b60208601516040870151606090970151919890975090945092505050565b61198a8061011c6000396000f3fe608060405234801561001057600080fd5b50600436106101a95760003560e01c80635312ea8e116100f957806393f1a40b11610097578063b0bcf42a11610071578063b0bcf42a146103ba578063d49e77cd146103c3578063e2bbb158146103d6578063f2fde38b146103e957600080fd5b806393f1a40b1461034d5780639e281a98146103945780639f31f38f146103a757600080fd5b8063715018a6116100d3578063715018a61461030e5780637cd07e47146103165780638da5cb5b146103295780638dbb1e3a1461033a57600080fd5b80635312ea8e146102e0578063630b5ba1146102f357806364482f79146102fb57600080fd5b80631aed655311610166578063441a3e7011610140578063441a3e701461029e578063454b0608146102b157806348cd4cb1146102c457806351eb05a6146102cd57600080fd5b80631aed65531461026d5780631eaaa0451461027657806323cf31181461028b57600080fd5b806304cbfae5146101ae578063081e3eda146101e15780630a087903146101e95780631526fe271461021457806317caf6f114610251578063195426ec1461025a575b600080fd5b6101ce6101bc3660046116d6565b60086020526000908152604090205481565b6040519081526020015b60405180910390f35b6006546101ce565b6001546101fc906001600160a01b031681565b6040516001600160a01b0390911681526020016101d8565b6102276102223660046116d6565b6103fc565b604080516001600160a01b03909516855260208501939093529183015260608201526080016101d8565b6101ce60095481565b6101ce610268366004611708565b610440565b6101ce60035481565b610289610284366004611738565b6105c0565b005b610289610299366004611653565b610716565b6102896102ac36600461177a565b610762565b6102896102bf3660046116d6565b6108b6565b6101ce600a5481565b6102896102db3660046116d6565b610b1e565b6102896102ee3660046116d6565b610c4e565b610289610cf0565b61028961030936600461179c565b610d1b565b610289610dca565b6005546101fc906001600160a01b031681565b6000546001600160a01b03166101fc565b6101ce61034836600461177a565b610e00565b61037f61035b366004611708565b60076020908152600092835260408084209091529082529020805460019091015482565b604080519283526020830191909152016101d8565b6102896103a2366004611670565b610e54565b6102896103b53660046116d6565b610e88565b6101ce60045481565b6002546101fc906001600160a01b031681565b6102896103e436600461177a565b610ec2565b6102896103f7366004611653565b610fda565b6006818154811061040c57600080fd5b600091825260209091206004909102018054600182015460028301546003909301546001600160a01b039092169350919084565b600080600684815481106104565761045661191b565b600091825260208083208784526007825260408085206001600160a01b038981168752935280852060049485029092016003810154815492516370a0823160e01b8152309681019690965290965091949193919216906370a082319060240160206040518083038186803b1580156104cd57600080fd5b505afa1580156104e1573d6000803e3d6000fd5b505050506040513d601f19601f8201168201806040525081019061050591906116ef565b905083600201544311801561051957508015155b1561058557600061052e856002015443610e00565b9050600061056160095461055b88600101546105556004548761107290919063ffffffff16565b90611072565b90611085565b90506105806105798461055b8464e8d4a51000611072565b8590611091565b935050505b6105b383600101546105ad64e8d4a5100061055b86886000015461107290919063ffffffff16565b9061109d565b9450505050505b92915050565b6000546001600160a01b031633146105f35760405162461bcd60e51b81526004016105ea90611819565b60405180910390fd5b801561060157610601610cf0565b6000600a54431161061457600a54610616565b435b6009549091506106269085611091565b600955604080516080810182526001600160a01b0394851681526020810195865290810191825260006060820181815260068054600181018255925291517ff652222313e28459528d920b65115c16c04f3efc82aaedc97be59f3f377c0d3f600490920291820180546001600160a01b031916919096161790945593517ff652222313e28459528d920b65115c16c04f3efc82aaedc97be59f3f377c0d40840155517ff652222313e28459528d920b65115c16c04f3efc82aaedc97be59f3f377c0d418301555090517ff652222313e28459528d920b65115c16c04f3efc82aaedc97be59f3f377c0d4290910155565b6000546001600160a01b031633146107405760405162461bcd60e51b81526004016105ea90611819565b600580546001600160a01b0319166001600160a01b0392909216919091179055565b6000600683815481106107775761077761191b565b6000918252602080832086845260078252604080852033865290925292208054600490920290920192508311156107e55760405162461bcd60e51b81526020600482015260126024820152711dda5d1a191c985dce881b9bdd0819dbdbd960721b60448201526064016105ea565b6107ee84610b1e565b600061081c82600101546105ad64e8d4a5100061055b8760030154876000015461107290919063ffffffff16565b9050801561082e5761082e33826110a9565b8315610858578154610840908561109d565b82558254610858906001600160a01b031633866111fa565b600383015482546108739164e8d4a510009161055b91611072565b6001830155604051848152859033907ff279e6a1f5e320cca91135676d9cb6e44ca8a08c0b88342bcdb1144f6511b5689060200160405180910390a35050505050565b6005546001600160a01b03166109055760405162461bcd60e51b815260206004820152601460248201527336b4b3b930ba329d1037379036b4b3b930ba37b960611b60448201526064016105ea565b60006006828154811061091a5761091a61191b565b60009182526020822060049182020180546040516370a0823160e01b815230938101939093529093506001600160a01b0316919082906370a082319060240160206040518083038186803b15801561097157600080fd5b505afa158015610985573d6000803e3d6000fd5b505050506040513d601f19601f820116820180604052508101906109a991906116ef565b6005549091506109c6906001600160a01b0384811691168361125d565b60055460405163ce5494bb60e01b81526001600160a01b038481166004830152600092169063ce5494bb90602401602060405180830381600087803b158015610a0e57600080fd5b505af1158015610a22573d6000803e3d6000fd5b505050506040513d601f19601f82011682018060405250810190610a4691906116b9565b6040516370a0823160e01b81523060048201529091506001600160a01b038216906370a082319060240160206040518083038186803b158015610a8857600080fd5b505afa158015610a9c573d6000803e3d6000fd5b505050506040513d601f19601f82011682018060405250810190610ac091906116ef565b8214610afd5760405162461bcd60e51b815260206004820152600c60248201526b1b5a59dc985d194e8818985960a21b60448201526064016105ea565b83546001600160a01b0319166001600160a01b039190911617909255505050565b600060068281548110610b3357610b3361191b565b9060005260206000209060040201905080600201544311610b52575050565b80546040516370a0823160e01b81523060048201526000916001600160a01b0316906370a082319060240160206040518083038186803b158015610b9557600080fd5b505afa158015610ba9573d6000803e3d6000fd5b505050506040513d601f19601f82011682018060405250810190610bcd91906116ef565b905080610bdf57504360029091015550565b6000610bef836002015443610e00565b90506000610c1660095461055b86600101546105556004548761107290919063ffffffff16565b9050610c39610c2e8461055b8464e8d4a51000611072565b600386015490611091565b60038501555050436002909201919091555050565b600060068281548110610c6357610c6361191b565b60009182526020808320858452600782526040808520338087529352909320805460049093029093018054909450610ca8926001600160a01b039190911691906111fa565b8054604051908152839033907fbb757047c2b5f3974fe26b7c10f732e7bce710b0952a71082702781e62ae05959060200160405180910390a360008082556001909101555050565b60065460005b81811015610d1757610d0781610b1e565b610d10816118ea565b9050610cf6565b5050565b6000546001600160a01b03163314610d455760405162461bcd60e51b81526004016105ea90611819565b8015610d5357610d53610cf0565b610d9682610d9060068681548110610d6d57610d6d61191b565b90600052602060002090600402016001015460095461109d90919063ffffffff16565b90611091565b6009819055508160068481548110610db057610db061191b565b906000526020600020906004020160010181905550505050565b6000546001600160a01b03163314610df45760405162461bcd60e51b81526004016105ea90611819565b610dfe6000611381565b565b60006003548211610e1c57610e15828461109d565b90506105ba565b6003548310610e2f57610e15828461109d565b610e15610e476003548461109d90919063ffffffff16565b600354610d90908661109d565b6000546001600160a01b03163314610e7e5760405162461bcd60e51b81526004016105ea90611819565b610d1782826110a9565b6000546001600160a01b03163314610eb25760405162461bcd60e51b81526004016105ea90611819565b6004819055610ebf610cf0565b50565b600060068381548110610ed757610ed761191b565b60009182526020808320868452600782526040808520338652909252922060049091029091019150610f0884610b1e565b805415610f51576000610f3d82600101546105ad64e8d4a5100061055b8760030154876000015461107290919063ffffffff16565b90508015610f4f57610f4f33826110a9565b505b8215610f7d578154610f6e906001600160a01b03163330866113d1565b8054610f7a9084611091565b81555b60038201548154610f989164e8d4a510009161055b91611072565b6001820155604051838152849033907f90890809c654f11d6e72a28fa60149770a0d11ec6c92319d6ceb2bb0a4ea1a159060200160405180910390a350505050565b6000546001600160a01b031633146110045760405162461bcd60e51b81526004016105ea90611819565b6001600160a01b0381166110695760405162461bcd60e51b815260206004820152602660248201527f4f776e61626c653a206e6577206f776e657220697320746865207a65726f206160448201526564647265737360d01b60648201526084016105ea565b610ebf81611381565b600061107e8284611888565b9392505050565b600061107e8284611866565b600061107e828461184e565b600061107e82846118a7565b6001546040516370a0823160e01b81523060048201526000916001600160a01b0316906370a082319060240160206040518083038186803b1580156110ed57600080fd5b505afa158015611101573d6000803e3d6000fd5b505050506040513d601f19601f8201168201806040525081019061112591906116ef565b9050808211156111bc5760015460405163a9059cbb60e01b81526001600160a01b038581166004830152602482018490529091169063a9059cbb906044015b602060405180830381600087803b15801561117e57600080fd5b505af1158015611192573d6000803e3d6000fd5b505050506040513d601f19601f820116820180604052508101906111b6919061169c565b50505050565b60015460405163a9059cbb60e01b81526001600160a01b038581166004830152602482018590529091169063a9059cbb90604401611164565b505050565b6040516001600160a01b0383166024820152604481018290526111f590849063a9059cbb60e01b906064015b60408051601f198184030181529190526020810180516001600160e01b03166001600160e01b031990931692909217909152611409565b8015806112e65750604051636eb1769f60e11b81523060048201526001600160a01b03838116602483015284169063dd62ed3e9060440160206040518083038186803b1580156112ac57600080fd5b505afa1580156112c0573d6000803e3d6000fd5b505050506040513d601f19601f820116820180604052508101906112e491906116ef565b155b6113515760405162461bcd60e51b815260206004820152603660248201527f5361666545524332303a20617070726f76652066726f6d206e6f6e2d7a65726f60448201527520746f206e6f6e2d7a65726f20616c6c6f77616e636560501b60648201526084016105ea565b6040516001600160a01b0383166024820152604481018290526111f590849063095ea7b360e01b90606401611226565b600080546001600160a01b038381166001600160a01b0319831681178455604051919092169283917f8be0079c531659141344cd1fd0a4f28419497f9722a3daafe3b4186f6b6457e09190a35050565b6040516001600160a01b03808516602483015283166044820152606481018290526111b69085906323b872dd60e01b90608401611226565b600061145e826040518060400160405280602081526020017f5361666545524332303a206c6f772d6c6576656c2063616c6c206661696c6564815250856001600160a01b03166114db9092919063ffffffff16565b8051909150156111f5578080602001905181019061147c919061169c565b6111f55760405162461bcd60e51b815260206004820152602a60248201527f5361666545524332303a204552433230206f7065726174696f6e20646964206e6044820152691bdd081cdd58d8d9595960b21b60648201526084016105ea565b60606114ea84846000856114f2565b949350505050565b6060824710156115535760405162461bcd60e51b815260206004820152602660248201527f416464726573733a20696e73756666696369656e742062616c616e636520666f6044820152651c8818d85b1b60d21b60648201526084016105ea565b843b6115a15760405162461bcd60e51b815260206004820152601d60248201527f416464726573733a2063616c6c20746f206e6f6e2d636f6e747261637400000060448201526064016105ea565b600080866001600160a01b031685876040516115bd91906117ca565b60006040518083038185875af1925050503d80600081146115fa576040519150601f19603f3d011682016040523d82523d6000602084013e6115ff565b606091505b509150915061160f82828661161a565b979650505050505050565b6060831561162957508161107e565b8251156116395782518084602001fd5b8160405162461bcd60e51b81526004016105ea91906117e6565b60006020828403121561166557600080fd5b813561107e81611931565b6000806040838503121561168357600080fd5b823561168e81611931565b946020939093013593505050565b6000602082840312156116ae57600080fd5b815161107e81611946565b6000602082840312156116cb57600080fd5b815161107e81611931565b6000602082840312156116e857600080fd5b5035919050565b60006020828403121561170157600080fd5b5051919050565b6000806040838503121561171b57600080fd5b82359150602083013561172d81611931565b809150509250929050565b60008060006060848603121561174d57600080fd5b83359250602084013561175f81611931565b9150604084013561176f81611946565b809150509250925092565b6000806040838503121561178d57600080fd5b50508035926020909101359150565b6000806000606084860312156117b157600080fd5b8335925060208401359150604084013561176f81611946565b600082516117dc8184602087016118be565b9190910192915050565b60208152600082518060208401526118058160408501602087016118be565b601f01601f19169190910160400192915050565b6020808252818101527f4f776e61626c653a2063616c6c6572206973206e6f7420746865206f776e6572604082015260600190565b6000821982111561186157611861611905565b500190565b60008261188357634e487b7160e01b600052601260045260246000fd5b500490565b60008160001904831182151516156118a2576118a2611905565b500290565b6000828210156118b9576118b9611905565b500390565b60005b838110156118d95781810151838201526020016118c1565b838111156111b65750506000910152565b60006000198214156118fe576118fe611905565b5060010190565b634e487b7160e01b600052601160045260246000fd5b634e487b7160e01b600052603260045260246000fd5b6001600160a01b0381168114610ebf57600080fd5b8015158114610ebf57600080fdfea264697066735822122020dcfb9d351497712a83ccdc5144608247fe347c4723d5b95c98a3a94c9aa3dd64736f6c63430008070033",
  "linkReferences": {},
  "deployedLinkReferences": {}
}