{
  "_format": "hh-sol-artifact-1",
  "contractName": "Relayer",
  "sourceName": "contracts/relayer/Relayer.sol",
  "abi": [
    {
      "anonymous": false,
      "inputs": [
        {
          "indexed": true,
          "internalType": "address",
          "name": "previousOwner",
          "type": "address"
        },
        {
          "indexed": true,
          "internalType": "address",
          "name": "newOwner",
          "type": "address"
        }
      ],
      "name": "OwnershipTransferred",
      "type": "event"
    },
    {
      "anonymous": false,
      "inputs": [
        {
          "indexed": true,
          "internalType": "address",
          "name": "from",
          "type": "address"
        },
        {
          "indexed": false,
          "internalType": "uint256",
          "name": "value",
          "type": "uint256"
        }
      ],
      "name": "Register",
      "type": "event"
    },
    {
      "anonymous": false,
      "inputs": [
        {
          "indexed": true,
          "internalType": "address",
          "name": "from",
          "type": "address"
        },
        {
          "indexed": false,
          "internalType": "uint256",
          "name": "value",
          "type": "uint256"
        }
      ],
      "name": "Unregister",
      "type": "event"
    },
    {
      "anonymous": false,
      "inputs": [
        {
          "indexed": true,
          "internalType": "address",
          "name": "from",
          "type": "address"
        },
        {
          "indexed": false,
          "internalType": "uint256",
          "name": "value",
          "type": "uint256"
        }
      ],
      "name": "Withdraw",
      "type": "event"
    },
    {
      "anonymous": false,
      "inputs": [
        {
          "indexed": true,
          "internalType": "address",
          "name": "sender",
          "type": "address"
        },
        {
          "indexed": true,
          "internalType": "uint256",
          "name": "chainId",
          "type": "uint256"
        },
        {
          "indexed": true,
          "internalType": "bytes32",
          "name": "bindAddress",
          "type": "bytes32"
        }
      ],
      "name": "WorkerSet",
      "type": "event"
    },
    {
      "inputs": [
        {
          "internalType": "address",
          "name": "addr",
          "type": "address"
        }
      ],
      "name": "address2Bytes",
      "outputs": [
        {
          "internalType": "bytes32",
          "name": "",
          "type": "bytes32"
        }
      ],
      "stateMutability": "pure",
      "type": "function"
    },
    {
      "inputs": [
        {
          "internalType": "uint256[]",
          "name": "_chainIdList",
          "type": "uint256[]"
        },
        {
          "internalType": "bytes32",
          "name": "_worker",
          "type": "bytes32"
        }
      ],
      "name": "batchBindingSingleWorker",
      "outputs": [],
      "stateMutability": "nonpayable",
      "type": "function"
    },
    {
      "inputs": [
        {
          "internalType": "uint256[]",
          "name": "_chainIdList",
          "type": "uint256[]"
        },
        {
          "internalType": "bytes32[]",
          "name": "_workerList",
          "type": "bytes32[]"
        }
      ],
      "name": "batchBindingWorkers",
      "outputs": [],
      "stateMutability": "nonpayable",
      "type": "function"
    },
    {
      "inputs": [
        {
          "internalType": "address",
          "name": "_worker",
          "type": "address"
        }
      ],
      "name": "bind",
      "outputs": [],
      "stateMutability": "nonpayable",
      "type": "function"
    },
    {
      "inputs": [
        {
          "internalType": "bytes32",
          "name": "",
          "type": "bytes32"
        },
        {
          "internalType": "uint256",
          "name": "",
          "type": "uint256"
        }
      ],
      "name": "bindRelayer",
      "outputs": [
        {
          "internalType": "address",
          "name": "",
          "type": "address"
        }
      ],
      "stateMutability": "view",
      "type": "function"
    },
    {
      "inputs": [
        {
          "internalType": "uint256",
          "name": "_chainId",
          "type": "uint256"
        },
        {
          "internalType": "bytes32",
          "name": "_worker",
          "type": "bytes32"
        }
      ],
      "name": "bindingWorker",
      "outputs": [],
      "stateMutability": "nonpayable",
      "type": "function"
    },
    {
      "inputs": [
        {
          "internalType": "bytes32",
          "name": "b32",
          "type": "bytes32"
        }
      ],
      "name": "bytes2Address",
      "outputs": [
        {
          "internalType": "address",
          "name": "",
          "type": "address"
        }
      ],
      "stateMutability": "pure",
      "type": "function"
    },
    {
      "inputs": [
        {
          "internalType": "uint256",
          "name": "chainID",
          "type": "uint256"
        }
      ],
      "name": "currentNumberAndHash",
      "outputs": [
        {
          "internalType": "uint256",
          "name": "number",
          "type": "uint256"
        },
        {
          "internalType": "bytes",
          "name": "hash",
          "type": "bytes"
        }
      ],
      "stateMutability": "view",
      "type": "function"
    },
    {
      "inputs": [
        {
          "internalType": "uint256",
          "name": "_minStakeAmount",
          "type": "uint256"
        }
      ],
      "name": "initialize",
      "outputs": [],
      "stateMutability": "nonpayable",
      "type": "function"
    },
    {
      "inputs": [],
      "name": "length",
      "outputs": [
        {
          "internalType": "uint256",
          "name": "",
          "type": "uint256"
        }
      ],
      "stateMutability": "view",
      "type": "function"
    },
    {
      "inputs": [],
      "name": "minStakeAmount",
      "outputs": [
        {
          "internalType": "uint256",
          "name": "",
          "type": "uint256"
        }
      ],
      "stateMutability": "view",
      "type": "function"
    },
    {
      "inputs": [],
      "name": "owner",
      "outputs": [
        {
          "internalType": "address",
          "name": "",
          "type": "address"
        }
      ],
      "stateMutability": "view",
      "type": "function"
    },
    {
      "inputs": [
        {
          "internalType": "address",
          "name": "",
          "type": "address"
        }
      ],
      "name": "refund",
      "outputs": [
        {
          "internalType": "uint256",
          "name": "",
          "type": "uint256"
        }
      ],
      "stateMutability": "view",
      "type": "function"
    },
    {
      "inputs": [],
      "name": "register",
      "outputs": [],
      "stateMutability": "payable",
      "type": "function"
    },
    {
      "inputs": [
        {
          "internalType": "address",
          "name": "_relayer",
          "type": "address"
        }
      ],
      "name": "relayerAmount",
      "outputs": [
        {
          "internalType": "uint256",
          "name": "",
          "type": "uint256"
        }
      ],
      "stateMutability": "view",
      "type": "function"
    },
    {
      "inputs": [
        {
          "internalType": "address",
          "name": "_relayer",
          "type": "address"
        },
        {
          "internalType": "uint256",
          "name": "chainId",
          "type": "uint256"
        }
      ],
      "name": "relayerWorker",
      "outputs": [
        {
          "internalType": "bytes32",
          "name": "",
          "type": "bytes32"
        }
      ],
      "stateMutability": "view",
      "type": "function"
    },
    {
      "inputs": [],
      "name": "relayers",
      "outputs": [
        {
          "internalType": "address[]",
          "name": "",
          "type": "address[]"
        }
      ],
      "stateMutability": "view",
      "type": "function"
    },
    {
      "inputs": [],
      "name": "renounceOwnership",
      "outputs": [],
      "stateMutability": "nonpayable",
      "type": "function"
    },
    {
      "inputs": [
        {
          "internalType": "uint256",
          "name": "from",
          "type": "uint256"
        },
        {
          "internalType": "uint256",
          "name": "to",
          "type": "uint256"
        },
        {
          "internalType": "bytes",
          "name": "headers",
          "type": "bytes"
        }
      ],
      "name": "save",
      "outputs": [],
      "stateMutability": "nonpayable",
      "type": "function"
    },
    {
      "inputs": [
        {
          "internalType": "address",
          "name": "_bridgeAddr",
          "type": "address"
        }
      ],
      "name": "setBridgeAddr",
      "outputs": [],
      "stateMutability": "nonpayable",
      "type": "function"
    },
    {
      "inputs": [
        {
          "internalType": "uint256",
          "name": "_newMinStakeAmount",
          "type": "uint256"
        }
      ],
      "name": "setMinStakeAmount",
      "outputs": [],
      "stateMutability": "nonpayable",
      "type": "function"
    },
    {
      "inputs": [
        {
          "internalType": "address",
          "name": "newOwner",
          "type": "address"
        }
      ],
      "name": "transferOwnership",
      "outputs": [],
      "stateMutability": "nonpayable",
      "type": "function"
    },
    {
      "inputs": [
        {
          "internalType": "address",
          "name": "router",
          "type": "address"
        },
        {
          "internalType": "address",
          "name": "coin",
          "type": "address"
        },
        {
          "internalType": "uint256",
          "name": "srcChain",
          "type": "uint256"
        },
        {
          "internalType": "uint256",
          "name": "dstChain",
          "type": "uint256"
        },
        {
          "internalType": "bytes",
          "name": "txProve",
          "type": "bytes"
        }
      ],
      "name": "txVerify",
      "outputs": [
        {
          "internalType": "bool",
          "name": "success",
          "type": "bool"
        },
        {
          "internalType": "string",
          "name": "message",
          "type": "string"
        }
      ],
      "stateMutability": "nonpayable",
      "type": "function"
    },
    {
      "inputs": [],
      "name": "unregister",
      "outputs": [],
      "stateMutability": "nonpayable",
      "type": "function"
    },
    {
      "inputs": [],
      "name": "withdraw",
      "outputs": [],
      "stateMutability": "nonpayable",
      "type": "function"
    }
  ],
  "bytecode": "0x608060405234801561001057600080fd5b5061001a3361001f565b61007a565b600080546001600160a01b038381166201000081810262010000600160b01b0319851617855560405193049190911692909183917f8be0079c531659141344cd1fd0a4f28419497f9722a3daafe3b4186f6b6457e091a35050565b611b21806100896000396000f3fe6080604052600436106101665760003560e01c80637bd77f3b116100d1578063e1caceed1161008a578063f188768411610064578063f188768414610452578063f2fde38b14610468578063fa89401a14610488578063fe4b84df146104b557600080fd5b8063e1caceed146103ef578063e79a198f1461041d578063eb4af0451461043257600080fd5b80637bd77f3b146103145780637df27c0b1461033457806381bac14f146103625780638da5cb5b14610382578063b9c7fcf2146103a6578063bc8d6328146103cd57600080fd5b80633ccfd60b116101235780633ccfd60b146102335780634dc076d6146102485780635dac7494146102685780636f36df3d1461028857806371396fb2146102be578063715018a6146102ff57600080fd5b80631aa3a0081461016b5780631f7b6d32146101755780632ce6c3191461019d5780632dcf6d21146101bd5780632f34f436146101f357806339a2e27814610213575b600080fd5b6101736104d5565b005b34801561018157600080fd5b5061018a6105cf565b6040519081526020015b60405180910390f35b3480156101a957600080fd5b5061018a6101b8366004611624565b6105e0565b3480156101c957600080fd5b506101db6101d8366004611770565b90565b6040516001600160a01b039091168152602001610194565b3480156101ff57600080fd5b5061017361020e36600461164e565b61060e565b34801561021f57600080fd5b5061017361022e366004611789565b61075c565b34801561023f57600080fd5b506101736107ef565b34801561025457600080fd5b50610173610263366004611591565b61089a565b34801561027457600080fd5b506101736102833660046116ba565b6108ed565b34801561029457600080fd5b5061018a6102a3366004611591565b6001600160a01b031660009081526004602052604090205490565b3480156102ca57600080fd5b506101db6102d9366004611789565b60056020908152600092835260408084209091529082529020546001600160a01b031681565b34801561030b57600080fd5b506101736109c2565b34801561032057600080fd5b5061017361032f3660046117dc565b6109ff565b34801561034057600080fd5b5061035461034f3660046115ac565b610ae8565b60405161019492919061190c565b34801561036e57600080fd5b5061017361037d366004611591565b610be9565b34801561038e57600080fd5b506000546201000090046001600160a01b03166101db565b3480156103b257600080fd5b5061018a6103c1366004611591565b6001600160a01b031690565b3480156103d957600080fd5b506103e2610c85565b60405161019491906118bf565b3480156103fb57600080fd5b5061040f61040a366004611770565b610c91565b6040516101949291906119d2565b34801561042957600080fd5b50610173610d26565b34801561043e57600080fd5b5061017361044d366004611770565b610da0565b34801561045e57600080fd5b5061018a60015481565b34801561047457600080fd5b50610173610483366004611591565b610dd6565b34801561049457600080fd5b5061018a6104a3366004611591565b60066020526000908152604090205481565b3480156104c157600080fd5b506101736104d0366004611770565b610e78565b6001543410156105375760405162461bcd60e51b815260206004820152602260248201527f52656c617965723a20696e73756666696369656e74207374616b6520616d6f756044820152611b9d60f21b60648201526084015b60405180910390fd5b610542600233610f40565b1561058f5760405162461bcd60e51b815260206004820152601b60248201527f52656c617965723a20616c726561647920726567697374657265640000000000604482015260640161052e565b6105993334610f65565b60405134815233907e7dc6ab80cc84c043b7b8d4fcafc802187470087f7ea7fccd2e17aecd0256a19060200160405180910390a2565b60006105db6002610f8b565b905090565b6001600160a01b03821660009081526004602090815260408083208484526001019091529020545b92915050565b610619600233610f40565b6106355760405162461bcd60e51b815260040161052e90611966565b82811461068f5760405162461bcd60e51b815260206004820152602260248201527f52656c617965723a204c697374206c656e677468206d75737420626520657175604482015261185b60f21b606482015260840161052e565b60005b838110156107555760008585838181106106ae576106ae611a9f565b90506020020135905060008484848181106106cb576106cb611a9f565b6020908102929092013560008181526005845260408082208783529094529290922054919250506001600160a01b0316156107185760405162461bcd60e51b815260040161052e9061192f565b610723338284610f95565b604051819083903390600080516020611acc83398151915290600090a45050808061074d90611a58565b915050610692565b5050505050565b610767600233610f40565b6107835760405162461bcd60e51b815260040161052e90611966565b60008181526005602090815260408083208584529091529020546001600160a01b0316156107c35760405162461bcd60e51b815260040161052e9061192f565b6107ce338284610f95565b604051819083903390600080516020611acc83398151915290600090a45050565b336000908152600660205260409020546108425760405162461bcd60e51b815260206004820152601460248201527314995b185e595c8e881e995c9bc81c99599d5b9960621b604482015260640161052e565b3360008181526006602052604081208054919055906108619082611027565b60405181815233907f884edad9ce6fa2440d8a54cc123490eb96d2768479d49ff9c7366125a9424364906020015b60405180910390a250565b6000546001600160a01b03620100009091041633146108cb5760405162461bcd60e51b815260040161052e9061199d565b600780546001600160a01b0319166001600160a01b0392909216919091179055565b6108f8600233610f40565b6109145760405162461bcd60e51b815260040161052e90611966565b60005b828110156109bc57600084848381811061093357610933611a9f565b600086815260056020908152604080832093820295909501358083529290529290922054919250506001600160a01b0316156109815760405162461bcd60e51b815260040161052e9061192f565b61098c338483610f95565b604051839082903390600080516020611acc83398151915290600090a450806109b481611a58565b915050610917565b50505050565b6000546001600160a01b03620100009091041633146109f35760405162461bcd60e51b815260040161052e9061199d565b6109fd6000611145565b565b336000818152600560209081526040808320468085529252909120549091906001600160a01b0316610a735760405162461bcd60e51b815260206004820152601d60248201527f52656c617965723a2063616c6c6572206973206e6f7420776f726b6572000000604482015260640161052e565b604051637bd77f3b60e01b81527168656164657273746f72654164647265737390637bd77f3b90610aae9089908990899089906004016119eb565b600060405180830381600087803b158015610ac857600080fd5b505af1158015610adc573d6000803e3d6000fd5b50505050505050505050565b6007546000906060906001600160a01b03163314610b485760405162461bcd60e51b815260206004820152601d60248201527f52656c617965723a2063616c6c6572206973206e6f7420627269646765000000604482015260640161052e565b604051637df27c0b60e01b81526e74785665726966794164647265737390637df27c0b90610b84908b908b908b908b908b908b90600401611878565b600060405180830381600087803b158015610b9e57600080fd5b505af1158015610bb2573d6000803e3d6000fd5b505050506040513d6000823e601f3d908101601f19168201604052610bda9190810190611706565b90999098509650505050505050565b610bf4600233610f40565b610c105760405162461bcd60e51b815260040161052e90611966565b6001600160a01b03818116600081815260056020908152604080832046808552925290912054919290911615610c585760405162461bcd60e51b815260040161052e9061192f565b610c63338383610f95565b604051829082903390600080516020611acc83398151915290600090a4505050565b60606105db60026111a0565b60405163e1caceed60e01b8152600481018290526000906060907168656164657273746f7265416464726573739063e1caceed9060240160006040518083038186803b158015610ce057600080fd5b505afa158015610cf4573d6000803e3d6000fd5b505050506040513d6000823e601f3d908101601f19168201604052610d1c91908101906117ab565b9094909350915050565b610d31600233610f40565b610d4d5760405162461bcd60e51b815260040161052e90611966565b6000610d58336111ad565b336000818152600660205260409081902083905551919250907f46d17c3a7286a693e0dc0769e261984d3981e0f266eda030d0b63bcaa23e776d9061088f9084815260200190565b6000546001600160a01b0362010000909104163314610dd15760405162461bcd60e51b815260040161052e9061199d565b600155565b6000546001600160a01b0362010000909104163314610e075760405162461bcd60e51b815260040161052e9061199d565b6001600160a01b038116610e6c5760405162461bcd60e51b815260206004820152602660248201527f4f776e61626c653a206e6577206f776e657220697320746865207a65726f206160448201526564647265737360d01b606482015260840161052e565b610e7581611145565b50565b600054610100900460ff16610e935760005460ff1615610e97565b303b155b610efa5760405162461bcd60e51b815260206004820152602e60248201527f496e697469616c697a61626c653a20636f6e747261637420697320616c72656160448201526d191e481a5b9a5d1a585b1a5e995960921b606482015260840161052e565b600054610100900460ff16158015610f1c576000805461ffff19166101011790555b6001829055610f2a33611145565b8015610f3c576000805461ff00191690555b5050565b6001600160a01b038116600090815260018301602052604081205415155b9392505050565b6001600160a01b03821660009081526004602052604090208181556109bc600284611279565b6000610608825490565b6001600160a01b03831660009081526004602090815260408083208484526001810190925290912054610fdd5760028101805460018101825560009182526020909120018290555b600082815260019091016020908152604080832085905593825260058152838220928252919091522080546001600160a01b039092166001600160a01b0319909216919091179055565b804710156110775760405162461bcd60e51b815260206004820152601d60248201527f416464726573733a20696e73756666696369656e742062616c616e6365000000604482015260640161052e565b6000826001600160a01b03168260405160006040518083038185875af1925050503d80600081146110c4576040519150601f19603f3d011682016040523d82523d6000602084013e6110c9565b606091505b50509050806111405760405162461bcd60e51b815260206004820152603a60248201527f416464726573733a20756e61626c6520746f2073656e642076616c75652c207260448201527f6563697069656e74206d61792068617665207265766572746564000000000000606482015260840161052e565b505050565b600080546001600160a01b038381166201000081810262010000600160b01b0319851617855560405193049190911692909183917f8be0079c531659141344cd1fd0a4f28419497f9722a3daafe3b4186f6b6457e091a35050565b60606000610f5e8361128e565b6001600160a01b03811660009081526004602052604081208054915b600282015481101561123a5760008260020182815481106111ec576111ec611a9f565b60009182526020808320909101548083526001860182526040808420548452600583528084209184529152902080546001600160a01b0319169055508061123281611a58565b9150506111c9565b506001600160a01b0383166000908152600460205260408120818155906112646002830182611441565b5061127290506002846112ea565b5050919050565b6000610f5e836001600160a01b0384166112ff565b6060816000018054806020026020016040519081016040528092919081815260200182805480156112de57602002820191906000526020600020905b8154815260200190600101908083116112ca575b50505050509050919050565b6000610f5e836001600160a01b03841661134e565b600081815260018301602052604081205461134657508154600181810184556000848152602080822090930184905584548482528286019093526040902091909155610608565b506000610608565b60008181526001830160205260408120548015611437576000611372600183611a15565b855490915060009061138690600190611a15565b90508181146113eb5760008660000182815481106113a6576113a6611a9f565b90600052602060002001549050808760000184815481106113c9576113c9611a9f565b6000918252602080832090910192909255918252600188019052604090208390555b85548690806113fc576113fc611a89565b600190038181906000526020600020016000905590558560010160008681526020019081526020016000206000905560019350505050610608565b6000915050610608565b5080546000825590600052602060002090810190610e7591905b8082111561146f576000815560010161145b565b5090565b600067ffffffffffffffff8084111561148e5761148e611ab5565b604051601f8501601f19908116603f011681019082821181831017156114b6576114b6611ab5565b816040528093508581528686860111156114cf57600080fd5b6114dd866020830187611a2c565b5050509392505050565b80356001600160a01b03811681146114fe57600080fd5b919050565b60008083601f84011261151557600080fd5b50813567ffffffffffffffff81111561152d57600080fd5b6020830191508360208260051b850101111561154857600080fd5b9250929050565b60008083601f84011261156157600080fd5b50813567ffffffffffffffff81111561157957600080fd5b60208301915083602082850101111561154857600080fd5b6000602082840312156115a357600080fd5b610f5e826114e7565b60008060008060008060a087890312156115c557600080fd5b6115ce876114e7565b95506115dc602088016114e7565b94506040870135935060608701359250608087013567ffffffffffffffff81111561160657600080fd5b61161289828a0161154f565b979a9699509497509295939492505050565b6000806040838503121561163757600080fd5b611640836114e7565b946020939093013593505050565b6000806000806040858703121561166457600080fd5b843567ffffffffffffffff8082111561167c57600080fd5b61168888838901611503565b909650945060208701359150808211156116a157600080fd5b506116ae87828801611503565b95989497509550505050565b6000806000604084860312156116cf57600080fd5b833567ffffffffffffffff8111156116e657600080fd5b6116f286828701611503565b909790965060209590950135949350505050565b6000806040838503121561171957600080fd5b8251801515811461172957600080fd5b602084015190925067ffffffffffffffff81111561174657600080fd5b8301601f8101851361175757600080fd5b61176685825160208401611473565b9150509250929050565b60006020828403121561178257600080fd5b5035919050565b6000806040838503121561179c57600080fd5b50508035926020909101359150565b600080604083850312156117be57600080fd5b82519150602083015167ffffffffffffffff81111561174657600080fd5b600080600080606085870312156117f257600080fd5b8435935060208501359250604085013567ffffffffffffffff81111561181757600080fd5b6116ae8782880161154f565b81835281816020850137506000828201602090810191909152601f909101601f19169091010190565b60008151808452611864816020860160208601611a2c565b601f01601f19169290920160200192915050565b6001600160a01b03878116825286166020820152604081018590526060810184905260a0608082018190526000906118b39083018486611823565b98975050505050505050565b6020808252825182820181905260009190848201906040850190845b818110156119005783516001600160a01b0316835292840192918401916001016118db565b50909695505050505050565b8215158152604060208201526000611927604083018461184c565b949350505050565b6020808252601e908201527f52656c617965723a20776f726b657220616c72656164792062696e6465640000604082015260600190565b6020808252601e908201527f52656c617965723a2063616c6c6572206973206e6f742072656c617965720000604082015260600190565b6020808252818101527f4f776e61626c653a2063616c6c6572206973206e6f7420746865206f776e6572604082015260600190565b828152604060208201526000611927604083018461184c565b848152836020820152606060408201526000611a0b606083018486611823565b9695505050505050565b600082821015611a2757611a27611a73565b500390565b60005b83811015611a47578181015183820152602001611a2f565b838111156109bc5750506000910152565b6000600019821415611a6c57611a6c611a73565b5060010190565b634e487b7160e01b600052601160045260246000fd5b634e487b7160e01b600052603160045260246000fd5b634e487b7160e01b600052603260045260246000fd5b634e487b7160e01b600052604160045260246000fdfe4bf0ad35ecd03df8cdc09aa6fc015879a6bcd37d2504db6aa8cad5cda9316915a2646970667358221220606ba6e06720e7d5b4e6ded6fa57b94c21a53a79718e011025c5f00697a7b85f64736f6c63430008070033",
  "linkReferences": {},
  "deployedLinkReferences": {}
}