{
  "_format": "hh-sol-artifact-1",
  "contractName": "VToken",
  "sourceName": "contracts/vault/VToken.sol",
  "abi": [
    {
      "anonymous": false,
      "inputs": [
        {
          "indexed": true,
          "internalType": "address",
          "name": "owner",
          "type": "address"
        },
        {
          "indexed": true,
          "internalType": "address",
          "name": "spender",
          "type": "address"
        },
        {
          "indexed": false,
          "internalType": "uint256",
          "name": "value",
          "type": "uint256"
        }
      ],
      "name": "Approval",
      "type": "event"
    },
    {
      "anonymous": false,
      "inputs": [
        {
          "indexed": true,
          "internalType": "bytes32",
          "name": "role",
          "type": "bytes32"
        },
        {
          "indexed": true,
          "internalType": "bytes32",
          "name": "previousAdminRole",
          "type": "bytes32"
        },
        {
          "indexed": true,
          "internalType": "bytes32",
          "name": "newAdminRole",
          "type": "bytes32"
        }
      ],
      "name": "RoleAdminChanged",
      "type": "event"
    },
    {
      "anonymous": false,
      "inputs": [
        {
          "indexed": true,
          "internalType": "bytes32",
          "name": "role",
          "type": "bytes32"
        },
        {
          "indexed": true,
          "internalType": "address",
          "name": "account",
          "type": "address"
        },
        {
          "indexed": true,
          "internalType": "address",
          "name": "sender",
          "type": "address"
        }
      ],
      "name": "RoleGranted",
      "type": "event"
    },
    {
      "anonymous": false,
      "inputs": [
        {
          "indexed": true,
          "internalType": "bytes32",
          "name": "role",
          "type": "bytes32"
        },
        {
          "indexed": true,
          "internalType": "address",
          "name": "account",
          "type": "address"
        },
        {
          "indexed": true,
          "internalType": "address",
          "name": "sender",
          "type": "address"
        }
      ],
      "name": "RoleRevoked",
      "type": "event"
    },
    {
      "anonymous": false,
      "inputs": [
        {
          "indexed": true,
          "internalType": "address",
          "name": "from",
          "type": "address"
        },
        {
          "indexed": true,
          "internalType": "address",
          "name": "to",
          "type": "address"
        },
        {
          "indexed": false,
          "internalType": "uint256",
          "name": "value",
          "type": "uint256"
        }
      ],
      "name": "Transfer",
      "type": "event"
    },
    {
      "anonymous": false,
      "inputs": [
        {
          "indexed": false,
          "internalType": "uint256",
          "name": "correspondAmount",
          "type": "uint256"
        },
        {
          "indexed": false,
          "internalType": "uint256",
          "name": "vAmount",
          "type": "uint256"
        }
      ],
      "name": "VaultStaking",
      "type": "event"
    },
    {
      "anonymous": false,
      "inputs": [
        {
          "indexed": false,
          "internalType": "uint256",
          "name": "correspondAmount",
          "type": "uint256"
        },
        {
          "indexed": false,
          "internalType": "uint256",
          "name": "vAmount",
          "type": "uint256"
        }
      ],
      "name": "VaultWithdraw",
      "type": "event"
    },
    {
      "inputs": [],
      "name": "DEFAULT_ADMIN_ROLE",
      "outputs": [
        {
          "internalType": "bytes32",
          "name": "",
          "type": "bytes32"
        }
      ],
      "stateMutability": "view",
      "type": "function"
    },
    {
      "inputs": [],
      "name": "MANAGER_ROLE",
      "outputs": [
        {
          "internalType": "bytes32",
          "name": "",
          "type": "bytes32"
        }
      ],
      "stateMutability": "view",
      "type": "function"
    },
    {
      "inputs": [
        {
          "internalType": "address",
          "name": "manager",
          "type": "address"
        }
      ],
      "name": "addManager",
      "outputs": [],
      "stateMutability": "nonpayable",
      "type": "function"
    },
    {
      "inputs": [
        {
          "internalType": "address",
          "name": "owner",
          "type": "address"
        },
        {
          "internalType": "address",
          "name": "spender",
          "type": "address"
        }
      ],
      "name": "allowance",
      "outputs": [
        {
          "internalType": "uint256",
          "name": "",
          "type": "uint256"
        }
      ],
      "stateMutability": "view",
      "type": "function"
    },
    {
      "inputs": [
        {
          "internalType": "address",
          "name": "spender",
          "type": "address"
        },
        {
          "internalType": "uint256",
          "name": "amount",
          "type": "uint256"
        }
      ],
      "name": "approve",
      "outputs": [
        {
          "internalType": "bool",
          "name": "",
          "type": "bool"
        }
      ],
      "stateMutability": "nonpayable",
      "type": "function"
    },
    {
      "inputs": [
        {
          "internalType": "address",
          "name": "account",
          "type": "address"
        }
      ],
      "name": "balanceOf",
      "outputs": [
        {
          "internalType": "uint256",
          "name": "",
          "type": "uint256"
        }
      ],
      "stateMutability": "view",
      "type": "function"
    },
    {
      "inputs": [],
      "name": "correspond",
      "outputs": [
        {
          "internalType": "address",
          "name": "",
          "type": "address"
        }
      ],
      "stateMutability": "view",
      "type": "function"
    },
    {
      "inputs": [],
      "name": "correspondBalance",
      "outputs": [
        {
          "internalType": "uint256",
          "name": "",
          "type": "uint256"
        }
      ],
      "stateMutability": "view",
      "type": "function"
    },
    {
      "inputs": [],
      "name": "decimals",
      "outputs": [
        {
          "internalType": "uint8",
          "name": "",
          "type": "uint8"
        }
      ],
      "stateMutability": "view",
      "type": "function"
    },
    {
      "inputs": [
        {
          "internalType": "address",
          "name": "spender",
          "type": "address"
        },
        {
          "internalType": "uint256",
          "name": "subtractedValue",
          "type": "uint256"
        }
      ],
      "name": "decreaseAllowance",
      "outputs": [
        {
          "internalType": "bool",
          "name": "",
          "type": "bool"
        }
      ],
      "stateMutability": "nonpayable",
      "type": "function"
    },
    {
      "inputs": [
        {
          "internalType": "uint256",
          "name": "amount",
          "type": "uint256"
        }
      ],
      "name": "getCorrespondQuantity",
      "outputs": [
        {
          "internalType": "uint256",
          "name": "",
          "type": "uint256"
        }
      ],
      "stateMutability": "view",
      "type": "function"
    },
    {
      "inputs": [
        {
          "internalType": "bytes32",
          "name": "role",
          "type": "bytes32"
        }
      ],
      "name": "getRoleAdmin",
      "outputs": [
        {
          "internalType": "bytes32",
          "name": "",
          "type": "bytes32"
        }
      ],
      "stateMutability": "view",
      "type": "function"
    },
    {
      "inputs": [
        {
          "internalType": "uint256",
          "name": "amount",
          "type": "uint256"
        }
      ],
      "name": "getVTokenQuantity",
      "outputs": [
        {
          "internalType": "uint256",
          "name": "",
          "type": "uint256"
        }
      ],
      "stateMutability": "view",
      "type": "function"
    },
    {
      "inputs": [
        {
          "internalType": "bytes32",
          "name": "role",
          "type": "bytes32"
        },
        {
          "internalType": "address",
          "name": "account",
          "type": "address"
        }
      ],
      "name": "grantRole",
      "outputs": [],
      "stateMutability": "nonpayable",
      "type": "function"
    },
    {
      "inputs": [
        {
          "internalType": "bytes32",
          "name": "role",
          "type": "bytes32"
        },
        {
          "internalType": "address",
          "name": "account",
          "type": "address"
        }
      ],
      "name": "hasRole",
      "outputs": [
        {
          "internalType": "bool",
          "name": "",
          "type": "bool"
        }
      ],
      "stateMutability": "view",
      "type": "function"
    },
    {
      "inputs": [
        {
          "internalType": "address",
          "name": "spender",
          "type": "address"
        },
        {
          "internalType": "uint256",
          "name": "addedValue",
          "type": "uint256"
        }
      ],
      "name": "increaseAllowance",
      "outputs": [
        {
          "internalType": "bool",
          "name": "",
          "type": "bool"
        }
      ],
      "stateMutability": "nonpayable",
      "type": "function"
    },
    {
      "inputs": [
        {
          "internalType": "string",
          "name": "name_",
          "type": "string"
        },
        {
          "internalType": "string",
          "name": "symbol_",
          "type": "string"
        },
        {
          "internalType": "uint8",
          "name": "decimals_",
          "type": "uint8"
        }
      ],
      "name": "init",
      "outputs": [],
      "stateMutability": "nonpayable",
      "type": "function"
    },
    {
      "inputs": [
        {
          "internalType": "address",
          "name": "correspond_",
          "type": "address"
        },
        {
          "internalType": "string",
          "name": "name_",
          "type": "string"
        },
        {
          "internalType": "string",
          "name": "symbol_",
          "type": "string"
        },
        {
          "internalType": "uint8",
          "name": "decimals_",
          "type": "uint8"
        }
      ],
      "name": "initialize",
      "outputs": [],
      "stateMutability": "nonpayable",
      "type": "function"
    },
    {
      "inputs": [],
      "name": "name",
      "outputs": [
        {
          "internalType": "string",
          "name": "",
          "type": "string"
        }
      ],
      "stateMutability": "view",
      "type": "function"
    },
    {
      "inputs": [
        {
          "internalType": "address",
          "name": "manager",
          "type": "address"
        }
      ],
      "name": "removeManager",
      "outputs": [],
      "stateMutability": "nonpayable",
      "type": "function"
    },
    {
      "inputs": [
        {
          "internalType": "bytes32",
          "name": "role",
          "type": "bytes32"
        },
        {
          "internalType": "address",
          "name": "account",
          "type": "address"
        }
      ],
      "name": "renounceRole",
      "outputs": [],
      "stateMutability": "nonpayable",
      "type": "function"
    },
    {
      "inputs": [
        {
          "internalType": "bytes32",
          "name": "role",
          "type": "bytes32"
        },
        {
          "internalType": "address",
          "name": "account",
          "type": "address"
        }
      ],
      "name": "revokeRole",
      "outputs": [],
      "stateMutability": "nonpayable",
      "type": "function"
    },
    {
      "inputs": [
        {
          "internalType": "uint256",
          "name": "amount",
          "type": "uint256"
        }
      ],
      "name": "staking",
      "outputs": [],
      "stateMutability": "nonpayable",
      "type": "function"
    },
    {
      "inputs": [
        {
          "internalType": "uint256",
          "name": "amount",
          "type": "uint256"
        },
        {
          "internalType": "address",
          "name": "to",
          "type": "address"
        }
      ],
      "name": "stakingTo",
      "outputs": [],
      "stateMutability": "nonpayable",
      "type": "function"
    },
    {
      "inputs": [
        {
          "internalType": "bytes4",
          "name": "interfaceId",
          "type": "bytes4"
        }
      ],
      "name": "supportsInterface",
      "outputs": [
        {
          "internalType": "bool",
          "name": "",
          "type": "bool"
        }
      ],
      "stateMutability": "view",
      "type": "function"
    },
    {
      "inputs": [],
      "name": "symbol",
      "outputs": [
        {
          "internalType": "string",
          "name": "",
          "type": "string"
        }
      ],
      "stateMutability": "view",
      "type": "function"
    },
    {
      "inputs": [],
      "name": "totalSupply",
      "outputs": [
        {
          "internalType": "uint256",
          "name": "",
          "type": "uint256"
        }
      ],
      "stateMutability": "view",
      "type": "function"
    },
    {
      "inputs": [
        {
          "internalType": "address",
          "name": "recipient",
          "type": "address"
        },
        {
          "internalType": "uint256",
          "name": "amount",
          "type": "uint256"
        }
      ],
      "name": "transfer",
      "outputs": [
        {
          "internalType": "bool",
          "name": "",
          "type": "bool"
        }
      ],
      "stateMutability": "nonpayable",
      "type": "function"
    },
    {
      "inputs": [
        {
          "internalType": "address",
          "name": "sender",
          "type": "address"
        },
        {
          "internalType": "address",
          "name": "recipient",
          "type": "address"
        },
        {
          "internalType": "uint256",
          "name": "amount",
          "type": "uint256"
        }
      ],
      "name": "transferFrom",
      "outputs": [
        {
          "internalType": "bool",
          "name": "",
          "type": "bool"
        }
      ],
      "stateMutability": "nonpayable",
      "type": "function"
    },
    {
      "inputs": [
        {
          "internalType": "address",
          "name": "",
          "type": "address"
        }
      ],
      "name": "userStakingAmount",
      "outputs": [
        {
          "internalType": "uint256",
          "name": "",
          "type": "uint256"
        }
      ],
      "stateMutability": "view",
      "type": "function"
    },
    {
      "inputs": [
        {
          "internalType": "uint256",
          "name": "amount",
          "type": "uint256"
        }
      ],
      "name": "withdraw",
      "outputs": [],
      "stateMutability": "nonpayable",
      "type": "function"
    }
  ],
  "bytecode": "0x60806040523480156200001157600080fd5b506200001f60003362000051565b6200004b7f241ecf16d79d0f8dbfb92cbc07fe17840425976cf0667f022fe9877caa831b083362000051565b62000105565b6200005d828262000061565b5050565b60008281526007602090815260408083206001600160a01b038516845290915290205460ff166200005d5760008281526007602090815260408083206001600160a01b03851684529091529020805460ff19166001179055620000c13390565b6001600160a01b0316816001600160a01b0316837f2f8788117e7eff1d82e926ec794901d17c78024a50270940304540a733656f0d60405160405180910390a45050565b611bc480620001156000396000f3fe608060405234801561001057600080fd5b50600436106101e55760003560e01c806360fd14c41161010f578063a9059cbb116100a2578063dd62ed3e11610071578063dd62ed3e1461042f578063ec87621c14610468578063f57b01821461047d578063f6d2ee861461049057600080fd5b8063a9059cbb146103ee578063a943bbdc14610401578063ac18de4314610409578063d547741f1461041c57600080fd5b806392ae7a96116100de57806392ae7a96146103b857806395d89b41146103cb578063a217fddf146103d3578063a457c2d7146103db57600080fd5b806360fd14c41461035657806370a0823114610369578063810220181461039257806391d14854146103a557600080fd5b8063248a9ca311610187578063313ce56711610156578063313ce567146102f0578063348ad0e41461030557806336568abe14610330578063395093511461034357600080fd5b8063248a9ca3146102945780632d06177a146102b75780632e1a7d4d146102ca5780632f2ff15d146102dd57600080fd5b806318160ddd116101c357806318160ddd1461023a5780631dbb2a221461024c5780631efe6f221461026157806323b872dd1461028157600080fd5b806301ffc9a7146101ea57806306fdde0314610212578063095ea7b314610227575b600080fd5b6101fd6101f83660046118c3565b6104a3565b60405190151581526020015b60405180910390f35b61021a6104da565b6040516102099190611a0b565b6101fd61023536600461183b565b61056c565b6003545b604051908152602001610209565b61025f61025a366004611887565b610582565b005b61023e61026f36600461172c565b60096020526000908152604090205481565b6101fd61028f36600461177a565b6105f0565b61023e6102a2366004611887565b60009081526007602052604090206001015490565b61025f6102c536600461172c565b61069f565b61025f6102d8366004611887565b6106c7565b61025f6102eb3660046118a0565b61077d565b60065460405160ff9091168152602001610209565b600a54610318906001600160a01b031681565b6040516001600160a01b039091168152602001610209565b61025f61033e3660046118a0565b6107a8565b6101fd61035136600461183b565b610822565b61023e610364366004611887565b61085e565b61023e61037736600461172c565b6001600160a01b031660009081526001602052604090205490565b61025f6103a03660046118a0565b6108a1565b6101fd6103b33660046118a0565b61095a565b61023e6103c6366004611887565b610985565b61021a6109bf565b61023e600081565b6101fd6103e936600461183b565b6109ce565b6101fd6103fc36600461183b565b610a67565b61023e610a74565b61025f61041736600461172c565b610af5565b61025f61042a3660046118a0565b610b19565b61023e61043d366004611747565b6001600160a01b03918216600090815260026020908152604080832093909416825291909152205490565b61023e600080516020611b6f83398151915281565b61025f61048b3660046118ed565b610b3f565b61025f61049e3660046117b6565b610c32565b60006001600160e01b03198216637965db0b60e01b14806104d457506301ffc9a760e01b6001600160e01b03198316145b92915050565b6060600480546104e990611af1565b80601f016020809104026020016040519081016040528092919081815260200182805461051590611af1565b80156105625780601f1061053757610100808354040283529160200191610562565b820191906000526020600020905b81548152906001019060200180831161054557829003601f168201915b5050505050905090565b6000610579338484610c68565b50600192915050565b600061058d82610985565b600a549091506105a8906001600160a01b0316333085610d8c565b6105b23382610ebc565b60408051838152602081018390527f79be8d4f2e1cff317cc349a796bc341a8f4f82a8c979df7aa2ba209c9cee246991015b60405180910390a15050565b60006105fd848484610f9b565b6001600160a01b0384166000908152600260209081526040808320338452909152902054828110156106875760405162461bcd60e51b815260206004820152602860248201527f45524332303a207472616e7366657220616d6f756e74206578636565647320616044820152676c6c6f77616e636560c01b60648201526084015b60405180910390fd5b6106948533858403610c68565b506001949350505050565b60006106ab8133611169565b6106c3600080516020611b6f833981519152836111cd565b5050565b60006106d28261085e565b905060006106e8826106e2610a74565b906111d7565b116107255760405162461bcd60e51b815260206004820152600d60248201526c0e8c2d6ca40e8dede40daeac6d609b1b604482015260640161067e565b61072f33836111ea565b600a54610747906001600160a01b0316333085610d8c565b60408051828152602081018490527f63b895becf91dccde54614b8b8a17bae84475a0f9f5dd487b0d9e36261350c4591016105e4565b6000828152600760205260409020600101546107998133611169565b6107a38383611338565b505050565b6001600160a01b03811633146108185760405162461bcd60e51b815260206004820152602f60248201527f416363657373436f6e74726f6c3a2063616e206f6e6c792072656e6f756e636560448201526e103937b632b9903337b91039b2b63360891b606482015260840161067e565b6106c382826113be565b3360008181526002602090815260408083206001600160a01b03871684529091528120549091610579918590610859908690611a3e565b610c68565b600080610869610a74565b9050600061087660035490565b90508061088557509192915050565b610899816108938685611425565b90611431565b949350505050565b6108b9600080516020611b6f8339815191523361095a565b6109055760405162461bcd60e51b815260206004820152601760248201527f43616c6c6572206973206e6f742061206d616e61676572000000000000000000604482015260640161067e565b600061091083610985565b905061091c8282610ebc565b60408051848152602081018390527f79be8d4f2e1cff317cc349a796bc341a8f4f82a8c979df7aa2ba209c9cee2469910160405180910390a1505050565b60009182526007602090815260408084206001600160a01b0393909316845291905290205460ff1690565b600061099060035490565b610998575090565b60006109a2610a74565b905060006109af60035490565b9050610899826108938684611425565b6060600580546104e990611af1565b3360009081526002602090815260408083206001600160a01b038616845290915281205482811015610a505760405162461bcd60e51b815260206004820152602560248201527f45524332303a2064656372656173656420616c6c6f77616e63652062656c6f77604482015264207a65726f60d81b606482015260840161067e565b610a5d3385858403610c68565b5060019392505050565b6000610579338484610f9b565b600a546040516370a0823160e01b81523060048201526000916001600160a01b0316906370a082319060240160206040518083038186803b158015610ab857600080fd5b505afa158015610acc573d6000803e3d6000fd5b505050506040513d601f19601f82011682018060405250810190610af09190611961565b905090565b6000610b018133611169565b6106c3600080516020611b6f833981519152836113be565b600082815260076020526040902060010154610b358133611169565b6107a383836113be565b600054610100900460ff16610b5a5760005460ff1615610b5e565b303b155b610bc15760405162461bcd60e51b815260206004820152602e60248201527f496e697469616c697a61626c653a20636f6e747261637420697320616c72656160448201526d191e481a5b9a5d1a585b1a5e995960921b606482015260840161067e565b600054610100900460ff16158015610be3576000805461ffff19166101011790555b8351610bf69060049060208701906115d9565b508251610c0a9060059060208601906115d9565b506006805460ff191660ff84161790558015610c2c576000805461ff00191690555b50505050565b600a80546001600160a01b0386166001600160a01b03199182168117909255600b80549091169091179055610c2c838383610b3f565b6001600160a01b038316610cca5760405162461bcd60e51b8152602060048201526024808201527f45524332303a20617070726f76652066726f6d20746865207a65726f206164646044820152637265737360e01b606482015260840161067e565b6001600160a01b038216610d2b5760405162461bcd60e51b815260206004820152602260248201527f45524332303a20617070726f766520746f20746865207a65726f206164647265604482015261737360f01b606482015260840161067e565b6001600160a01b0383811660008181526002602090815260408083209487168084529482529182902085905590518481527f8c5be1e5ebec7d5bd14f71427d1e84f3dd0314c0f7b2291e5b200ac8c7c3b925910160405180910390a3505050565b604080516001600160a01b0385811660248301528481166044830152606480830185905283518084039091018152608490920183526020820180516001600160e01b03166323b872dd60e01b1790529151600092839290881691610df0919061197a565b6000604051808303816000865af19150503d8060008114610e2d576040519150601f19603f3d011682016040523d82523d6000602084013e610e32565b606091505b5091509150818015610e5c575080511580610e5c575080806020019051810190610e5c9190611865565b610eb45760405162461bcd60e51b8152602060048201526024808201527f5472616e7366657248656c7065723a205452414e534645525f46524f4d5f46416044820152631253115160e21b606482015260840161067e565b505050505050565b6001600160a01b038216610f125760405162461bcd60e51b815260206004820152601f60248201527f45524332303a206d696e7420746f20746865207a65726f206164647265737300604482015260640161067e565b8060036000828254610f249190611a3e565b90915550506001600160a01b03821660009081526001602052604081208054839290610f51908490611a3e565b90915550506040518181526001600160a01b038316906000907fddf252ad1be2c89b69c2b068fc378daa952ba7f163c4a11628f55a4df523b3ef9060200160405180910390a35050565b6001600160a01b038316610fff5760405162461bcd60e51b815260206004820152602560248201527f45524332303a207472616e736665722066726f6d20746865207a65726f206164604482015264647265737360d81b606482015260840161067e565b6001600160a01b0382166110615760405162461bcd60e51b815260206004820152602360248201527f45524332303a207472616e7366657220746f20746865207a65726f206164647260448201526265737360e81b606482015260840161067e565b6001600160a01b038316600090815260016020526040902054818110156110d95760405162461bcd60e51b815260206004820152602660248201527f45524332303a207472616e7366657220616d6f756e7420657863656564732062604482015265616c616e636560d01b606482015260840161067e565b6001600160a01b03808516600090815260016020526040808220858503905591851681529081208054849290611110908490611a3e565b92505081905550826001600160a01b0316846001600160a01b03167fddf252ad1be2c89b69c2b068fc378daa952ba7f163c4a11628f55a4df523b3ef8460405161115c91815260200190565b60405180910390a3610c2c565b611173828261095a565b6106c35761118b816001600160a01b0316601461143d565b61119683602061143d565b6040516020016111a7929190611996565b60408051601f198184030181529082905262461bcd60e51b825261067e91600401611a0b565b6106c38282611338565b60006111e38284611a97565b9392505050565b6001600160a01b03821661124a5760405162461bcd60e51b815260206004820152602160248201527f45524332303a206275726e2066726f6d20746865207a65726f206164647265736044820152607360f81b606482015260840161067e565b6001600160a01b038216600090815260016020526040902054818110156112be5760405162461bcd60e51b815260206004820152602260248201527f45524332303a206275726e20616d6f756e7420657863656564732062616c616e604482015261636560f01b606482015260840161067e565b6001600160a01b03831660009081526001602052604081208383039055600380548492906112ed908490611a97565b90915550506040518281526000906001600160a01b038516907fddf252ad1be2c89b69c2b068fc378daa952ba7f163c4a11628f55a4df523b3ef9060200160405180910390a3505050565b611342828261095a565b6106c35760008281526007602090815260408083206001600160a01b03851684529091529020805460ff1916600117905561137a3390565b6001600160a01b0316816001600160a01b0316837f2f8788117e7eff1d82e926ec794901d17c78024a50270940304540a733656f0d60405160405180910390a45050565b6113c8828261095a565b156106c35760008281526007602090815260408083206001600160a01b0385168085529252808320805460ff1916905551339285917ff6391f5c32d9c69d2a47ea670b442974b53935d1edc7fd64eb21e047a839171b9190a45050565b60006111e38284611a78565b60006111e38284611a56565b6060600061144c836002611a78565b611457906002611a3e565b67ffffffffffffffff81111561146f5761146f611b58565b6040519080825280601f01601f191660200182016040528015611499576020820181803683370190505b509050600360fc1b816000815181106114b4576114b4611b42565b60200101906001600160f81b031916908160001a905350600f60fb1b816001815181106114e3576114e3611b42565b60200101906001600160f81b031916908160001a9053506000611507846002611a78565b611512906001611a3e565b90505b600181111561158a576f181899199a1a9b1b9c1cb0b131b232b360811b85600f166010811061154657611546611b42565b1a60f81b82828151811061155c5761155c611b42565b60200101906001600160f81b031916908160001a90535060049490941c9361158381611ada565b9050611515565b5083156111e35760405162461bcd60e51b815260206004820181905260248201527f537472696e67733a20686578206c656e67746820696e73756666696369656e74604482015260640161067e565b8280546115e590611af1565b90600052602060002090601f016020900481019282611607576000855561164d565b82601f1061162057805160ff191683800117855561164d565b8280016001018555821561164d579182015b8281111561164d578251825591602001919060010190611632565b5061165992915061165d565b5090565b5b80821115611659576000815560010161165e565b80356001600160a01b038116811461168957600080fd5b919050565b600082601f83011261169f57600080fd5b813567ffffffffffffffff808211156116ba576116ba611b58565b604051601f8301601f19908116603f011681019082821181831017156116e2576116e2611b58565b816040528381528660208588010111156116fb57600080fd5b836020870160208301376000602085830101528094505050505092915050565b803560ff8116811461168957600080fd5b60006020828403121561173e57600080fd5b6111e382611672565b6000806040838503121561175a57600080fd5b61176383611672565b915061177160208401611672565b90509250929050565b60008060006060848603121561178f57600080fd5b61179884611672565b92506117a660208501611672565b9150604084013590509250925092565b600080600080608085870312156117cc57600080fd5b6117d585611672565b9350602085013567ffffffffffffffff808211156117f257600080fd5b6117fe8883890161168e565b9450604087013591508082111561181457600080fd5b506118218782880161168e565b9250506118306060860161171b565b905092959194509250565b6000806040838503121561184e57600080fd5b61185783611672565b946020939093013593505050565b60006020828403121561187757600080fd5b815180151581146111e357600080fd5b60006020828403121561189957600080fd5b5035919050565b600080604083850312156118b357600080fd5b8235915061177160208401611672565b6000602082840312156118d557600080fd5b81356001600160e01b0319811681146111e357600080fd5b60008060006060848603121561190257600080fd5b833567ffffffffffffffff8082111561191a57600080fd5b6119268783880161168e565b9450602086013591508082111561193c57600080fd5b506119498682870161168e565b9250506119586040850161171b565b90509250925092565b60006020828403121561197357600080fd5b5051919050565b6000825161198c818460208701611aae565b9190910192915050565b7f416363657373436f6e74726f6c3a206163636f756e74200000000000000000008152600083516119ce816017850160208801611aae565b7001034b99036b4b9b9b4b733903937b6329607d1b60179184019182015283516119ff816028840160208801611aae565b01602801949350505050565b6020815260008251806020840152611a2a816040850160208701611aae565b601f01601f19169190910160400192915050565b60008219821115611a5157611a51611b2c565b500190565b600082611a7357634e487b7160e01b600052601260045260246000fd5b500490565b6000816000190483118215151615611a9257611a92611b2c565b500290565b600082821015611aa957611aa9611b2c565b500390565b60005b83811015611ac9578181015183820152602001611ab1565b83811115610c2c5750506000910152565b600081611ae957611ae9611b2c565b506000190190565b600181811c90821680611b0557607f821691505b60208210811415611b2657634e487b7160e01b600052602260045260246000fd5b50919050565b634e487b7160e01b600052601160045260246000fd5b634e487b7160e01b600052603260045260246000fd5b634e487b7160e01b600052604160045260246000fdfe241ecf16d79d0f8dbfb92cbc07fe17840425976cf0667f022fe9877caa831b08a26469706673582212207910d4d0b420ad52a0e39ca6250d58d925f4ea462539e2ca9b573f56ae48451164736f6c63430008070033",
  "linkReferences": {},
  "deployedLinkReferences": {}
}